{
  "contractName": "Plasmoid",
  "abi": [
    {
      "constant": true,
      "inputs": [
        {
          "name": "",
          "type": "uint256"
        }
      ],
      "name": "owners",
      "outputs": [
        {
          "name": "",
          "type": "address"
        }
      ],
      "payable": false,
      "stateMutability": "view",
      "type": "function"
    },
    {
      "constant": true,
      "inputs": [],
      "name": "uid",
      "outputs": [
        {
          "name": "",
          "type": "uint256"
        }
      ],
      "payable": false,
      "stateMutability": "view",
      "type": "function"
    },
    {
      "constant": true,
      "inputs": [],
      "name": "token",
      "outputs": [
        {
          "name": "",
          "type": "address"
        }
      ],
      "payable": false,
      "stateMutability": "view",
      "type": "function"
    },
    {
      "inputs": [
        {
          "name": "_tokenAddress",
          "type": "address"
        }
      ],
      "payable": false,
      "stateMutability": "nonpayable",
      "type": "constructor"
    },
    {
      "anonymous": false,
      "inputs": [
        {
          "indexed": true,
          "name": "uid",
          "type": "uint256"
        },
        {
          "indexed": true,
          "name": "owner",
          "type": "address"
        },
        {
          "indexed": false,
          "name": "amount",
          "type": "uint256"
        }
      ],
      "name": "DidDeposit",
      "type": "event"
    },
    {
      "anonymous": false,
      "inputs": [
        {
          "indexed": true,
          "name": "uid",
          "type": "uint256"
        },
        {
          "indexed": true,
          "name": "owner",
          "type": "address"
        },
        {
          "indexed": false,
          "name": "amount",
          "type": "uint256"
        }
      ],
      "name": "DidWithdraw",
      "type": "event"
    },
    {
      "anonymous": false,
      "inputs": [
        {
          "indexed": true,
          "name": "uid",
          "type": "uint256"
        },
        {
          "indexed": true,
          "name": "owner",
          "type": "address"
        },
        {
          "indexed": true,
          "name": "receiver",
          "type": "address"
        }
      ],
      "name": "DidTransfer",
      "type": "event"
    },
    {
      "constant": true,
      "inputs": [
        {
          "name": "_uid",
          "type": "uint256"
        }
      ],
      "name": "balanceOf",
      "outputs": [
        {
          "name": "",
          "type": "uint256"
        }
      ],
      "payable": false,
      "stateMutability": "view",
      "type": "function"
    },
    {
      "constant": false,
      "inputs": [
        {
          "name": "_amount",
          "type": "uint256"
        }
      ],
      "name": "deposit",
      "outputs": [],
      "payable": false,
      "stateMutability": "nonpayable",
      "type": "function"
    },
    {
      "constant": false,
      "inputs": [
        {
          "name": "_uid",
          "type": "uint256"
        },
        {
          "name": "_receiver",
          "type": "address"
        },
        {
          "name": "_signature",
          "type": "bytes"
        }
      ],
      "name": "transfer",
      "outputs": [],
      "payable": false,
      "stateMutability": "nonpayable",
      "type": "function"
    },
    {
      "constant": true,
      "inputs": [
        {
          "name": "_uid",
          "type": "uint256"
        },
        {
          "name": "_receiver",
          "type": "address"
        }
      ],
      "name": "transferDigest",
      "outputs": [
        {
          "name": "",
          "type": "bytes32"
        }
      ],
      "payable": false,
      "stateMutability": "view",
      "type": "function"
    },
    {
      "constant": true,
      "inputs": [
        {
          "name": "_hash",
          "type": "bytes32"
        },
        {
          "name": "_signatory",
          "type": "address"
        },
        {
          "name": "_signature",
          "type": "bytes"
        }
      ],
      "name": "isValidSignature",
      "outputs": [
        {
          "name": "",
          "type": "bool"
        }
      ],
      "payable": false,
      "stateMutability": "view",
      "type": "function"
    },
    {
      "constant": false,
      "inputs": [
        {
          "name": "_uid",
          "type": "uint256"
        }
      ],
      "name": "withdraw",
      "outputs": [],
      "payable": false,
      "stateMutability": "nonpayable",
      "type": "function"
    }
  ],
  "bytecode": "0x608060405234801561001057600080fd5b50604051602080610c7f833981016040525160038054600160a060020a03909216600160a060020a03199092169190911790556000600255610c28806100576000396000f3006080604052600436106100975763ffffffff7c0100000000000000000000000000000000000000000000000000000000600035041662c017ca811461009c578063025e7c27146101075780631f1b47641461013b5780632e1a7d4d1461017157806393634702146101895780639cc7f70814610206578063b6b55f251461021e578063f514ce3614610236578063fc0c546a1461024b575b600080fd5b3480156100a857600080fd5b50604080516020600460443581810135601f81018490048402850184019095528484526101059482359460248035600160a060020a0316953695946064949201919081908401838280828437509497506102609650505050505050565b005b34801561011357600080fd5b5061011f60043561034e565b60408051600160a060020a039092168252519081900360200190f35b34801561014757600080fd5b5061015f600435600160a060020a0360243516610369565b60408051918252519081900360200190f35b34801561017d57600080fd5b50610105600435610439565b34801561019557600080fd5b50604080516020600460443581810135601f81018490048402850184019095528484526101f29482359460248035600160a060020a03169536959460649492019190819084018382808284375094975061067e9650505050505050565b604080519115158252519081900360200190f35b34801561021257600080fd5b5061015f6004356107e3565b34801561022a57600080fd5b506101056004356107f5565b34801561024257600080fd5b5061015f610989565b34801561025757600080fd5b5061011f61098f565b600083815260016020526040902054600160a060020a031661028c6102858585610369565b828461067e565b15156102e2576040805160e560020a62461bcd02815260206004820152601760248201527f4f4e4c595f4f574e45525f43414e5f5452414e53464552000000000000000000604482015290519081900360640190fd5b600084815260016020526040808220805473ffffffffffffffffffffffffffffffffffffffff1916600160a060020a03878116918217909255915191929084169187917f6a40fd1d1bce324b8181b3041c13793a16ae926abad56b333240a41dc8c0fde991a450505050565b600160205260009081526040902054600160a060020a031681565b604080517f74000000000000000000000000000000000000000000000000000000000000006020808301919091526c01000000000000000000000000308102602184015260358301869052600160a060020a038516026055830152825160498184030181526069909201928390528151600093918291908401908083835b602083106104065780518252601f1990920191602091820191016103e7565b5181516020939093036101000a600019018019909116921691909117905260405192018290039091209695505050505050565b60008181526001602090815260408083205491839052822054600160a060020a039091169181116104b4576040805160e560020a62461bcd02815260206004820152600c60248201527f42616c616e636520697320300000000000000000000000000000000000000000604482015290519081900360640190fd5b600160a060020a0382163314610514576040805160e560020a62461bcd02815260206004820152601760248201527f4f6e6c79206f776e65722063616e207769746864726177000000000000000000604482015290519081900360640190fd5b600354604080517fa9059cbb000000000000000000000000000000000000000000000000000000008152600160a060020a038581166004830152602482018590529151919092169163a9059cbb9160448083019260209291908290030181600087803b15801561058357600080fd5b505af1158015610597573d6000803e3d6000fd5b505050506040513d60208110156105ad57600080fd5b50511515610605576040805160e560020a62461bcd02815260206004820152601760248201527f43616e206e6f74207472616e7366657220746f6b656e73000000000000000000604482015290519081900360640190fd5b6000838152602081815260408083208390556001825291829020805473ffffffffffffffffffffffffffffffffffffffff1916905560025482518481529251600160a060020a0386169391927fe8f063b84290b3803235ab51b951ae0276860066ecfbe56b91d0f39a6c515525928290030190a3505050565b60008060008061068d8561099e565b7f010000000000000000000000000000000000000000000000000000000000000090049250600260ff84161061070d576040805160e560020a62461bcd02815260206004820152601560248201527f5349474e41545552455f554e535550504f525445440000000000000000000000604482015290519081900360640190fd5b8260ff16600281111561071c57fe5b9150600082600281111561072c57fe5b14156107455733600160a060020a0387161493506107d9565b600182600281111561075357fe5b14156107895761076b61076588610a6a565b86610b14565b905085600160a060020a031681600160a060020a03161493506107d9565b6040805160e560020a62461bcd02815260206004820152601560248201527f5349474e41545552455f554e535550504f525445440000000000000000000000604482015290519081900360640190fd5b5050509392505050565b60009081526020819052604090205490565b6000811161084d576040805160e560020a62461bcd02815260206004820152601160248201527f43616e206e6f74206465706f7369742030000000000000000000000000000000604482015290519081900360640190fd5b600354604080517f23b872dd000000000000000000000000000000000000000000000000000000008152336004820152306024820152604481018490529051600160a060020a03909216916323b872dd916064808201926020929091908290030181600087803b1580156108c057600080fd5b505af11580156108d4573d6000803e3d6000fd5b505050506040513d60208110156108ea57600080fd5b505115156108f757600080fd5b60025461090b90600163ffffffff610be916565b6002818155600091825260208281526040808420859055825484526001825292839020805473ffffffffffffffffffffffffffffffffffffffff191633908117909155915483518581529351929390927f18b132744288679626598e27370ac2f7ebb000bf584bbb6fc9f575163a4a881c929181900390910190a350565b60025481565b600354600160a060020a031681565b6000808251111515610a20576040805160e560020a62461bcd02815260206004820152602160248201527f475245415445525f5448414e5f5a45524f5f4c454e4754485f5245515549524560448201527f4400000000000000000000000000000000000000000000000000000000000000606482015290519081900360840190fd5b815182906000198101908110610a3257fe5b0160200151825160001901909252507f0100000000000000000000000000000000000000000000000000000000000000908190040290565b604080517f19457468657265756d205369676e6564204d6573736167653a0a333200000000602080830191909152603c80830185905283518084039091018152605c909201928390528151600093918291908401908083835b60208310610ae25780518252601f199092019160209182019101610ac3565b5181516020939093036101000a6000190180199091169216919091179052604051920182900390912095945050505050565b60008060008084516041141515610b2e5760009350610be0565b50505060208201516040830151606084015160001a601b60ff82161015610b5357601b015b8060ff16601b14158015610b6b57508060ff16601c14155b15610b795760009350610be0565b60408051600080825260208083018085528a905260ff8516838501526060830187905260808301869052925160019360a0808501949193601f19840193928390039091019190865af1158015610bd3573d6000803e3d6000fd5b5050506020604051035193505b50505092915050565b81810182811015610bf657fe5b929150505600a165627a7a723058208d72fca883242c5538f1f3afdea5bcaa67c016e14bb81ef6afc3e693d9ac57c50029",
  "source": "pragma solidity ^0.4.24;\n\nimport \"openzeppelin-solidity/contracts/math/SafeMath.sol\";\nimport \"openzeppelin-solidity/contracts/ECRecovery.sol\";\nimport \"openzeppelin-solidity/contracts/token/ERC20/StandardToken.sol\";\nimport \"./LibBytes.sol\";\n\n\ncontract Plasmoid {\n    using SafeMath for uint256;\n    using LibBytes for bytes;\n\n    mapping (uint256 => uint256) private balances;\n    mapping (uint256 => address) public owners;\n\n    uint256 public uid;\n\n    StandardToken public token;\n\n    event DidDeposit(uint256 indexed uid, address indexed owner, uint256 amount);\n    event DidWithdraw(uint256 indexed uid, address indexed owner, uint256 amount);\n    event DidTransfer(uint256 indexed uid, address indexed owner, address indexed receiver);\n\n    enum SignatureType {\n        Caller, // 0x00\n        EthSign, // 0x01\n        MAX\n    }\n\n    constructor (address _tokenAddress) public {\n        token = StandardToken(_tokenAddress);\n        uid = 0;\n    }\n\n    function balanceOf (uint256 _uid) public view returns (uint256) {\n        return balances[_uid];\n    }\n\n    function deposit (uint256 _amount) public {\n        require(_amount > 0, \"Can not deposit 0\");\n        require(token.transferFrom(msg.sender, address(this), _amount));\n        uid = uid.add(1);\n        balances[uid] = _amount;\n        owners[uid] = msg.sender;\n\n        emit DidDeposit(uid, msg.sender, _amount);\n    }\n\n    function transfer(uint256 _uid, address _receiver, bytes _signature) public {\n        address owner = owners[_uid];\n        require(isValidSignature(transferDigest(_uid, _receiver), owner, _signature), \"ONLY_OWNER_CAN_TRANSFER\");\n        owners[_uid] = _receiver;\n\n        emit DidTransfer(_uid, owner, _receiver);\n    }\n\n    function transferDigest (uint256 _uid, address _receiver) public view returns (bytes32) {\n        return keccak256(abi.encodePacked(\"t\", address(this), _uid, _receiver));\n    }\n\n    function isValidSignature (bytes32 _hash, address _signatory, bytes memory _signature) public view returns (bool) {\n        uint8 signatureTypeRaw = uint8(_signature.popLastByte());\n        require(signatureTypeRaw < uint8(SignatureType.MAX), \"SIGNATURE_UNSUPPORTED\");\n        SignatureType signatureType = SignatureType(signatureTypeRaw);\n        if (signatureType == SignatureType.Caller) {\n            return msg.sender == _signatory;\n        } else if (signatureType == SignatureType.EthSign) {\n            address recovered = ECRecovery.recover(ECRecovery.toEthSignedMessageHash(_hash), _signature);\n            return recovered == _signatory;\n        } else {\n            revert(\"SIGNATURE_UNSUPPORTED\");\n        }\n    }\n\n    function withdraw (uint256 _uid) public {\n        address owner = owners[_uid];\n        uint256 amount = balances[_uid];\n\n        require(amount > 0, \"Balance is 0\");\n        require(owner == msg.sender, \"Only owner can withdraw\");\n        require(token.transfer(owner, amount), \"Can not transfer tokens\");\n        delete balances[_uid];\n        delete owners[_uid];\n\n        emit DidWithdraw(uid, owner, amount);\n    }\n}\n",
  "sourcePath": "/Users/ukstv/Documents/Pro/Machinomy/plasmoid/contracts/Plasmoid.sol",
  "compiler": {
    "name": "solc",
    "version": "0.4.24+commit.e67f0147.Emscripten.clang"
  },
  "schemaVersion": "3.0.0-beta.0",
  "updatedAt": "2018-09-02T22:37:24.551Z"
}