{
  "contractName": "Plasmoid",
  "abi": [
    {
      "constant": true,
      "inputs": [
        {
          "name": "",
          "type": "uint256"
        }
      ],
      "name": "owners",
      "outputs": [
        {
          "name": "",
          "type": "address"
        }
      ],
      "payable": false,
      "stateMutability": "view",
      "type": "function"
    },
    {
      "constant": true,
      "inputs": [],
      "name": "uid",
      "outputs": [
        {
          "name": "",
          "type": "uint256"
        }
      ],
      "payable": false,
      "stateMutability": "view",
      "type": "function"
    },
    {
      "constant": true,
      "inputs": [],
      "name": "token",
      "outputs": [
        {
          "name": "",
          "type": "address"
        }
      ],
      "payable": false,
      "stateMutability": "view",
      "type": "function"
    },
    {
      "inputs": [
        {
          "name": "_tokenAddress",
          "type": "address"
        }
      ],
      "payable": false,
      "stateMutability": "nonpayable",
      "type": "constructor"
    },
    {
      "anonymous": false,
      "inputs": [
        {
          "indexed": true,
          "name": "owner",
          "type": "address"
        },
        {
          "indexed": true,
          "name": "uid",
          "type": "uint256"
        },
        {
          "indexed": false,
          "name": "amount",
          "type": "uint256"
        }
      ],
      "name": "DidDeposit",
      "type": "event"
    },
    {
      "constant": true,
      "inputs": [
        {
          "name": "_uid",
          "type": "uint256"
        }
      ],
      "name": "balanceOf",
      "outputs": [
        {
          "name": "",
          "type": "uint256"
        }
      ],
      "payable": false,
      "stateMutability": "view",
      "type": "function"
    },
    {
      "constant": false,
      "inputs": [
        {
          "name": "amount",
          "type": "uint256"
        }
      ],
      "name": "deposit",
      "outputs": [],
      "payable": false,
      "stateMutability": "nonpayable",
      "type": "function"
    },
    {
      "constant": false,
      "inputs": [
        {
          "name": "_uid",
          "type": "uint256"
        }
      ],
      "name": "withdraw",
      "outputs": [],
      "payable": false,
      "stateMutability": "nonpayable",
      "type": "function"
    }
  ],
  "bytecode": "0x608060405234801561001057600080fd5b506040516020806105ed833981016040525160038054600160a060020a03909216600160a060020a03199092169190911790556000600255610596806100576000396000f3006080604052600436106100775763ffffffff7c0100000000000000000000000000000000000000000000000000000000600035041663025e7c27811461007c5780632e1a7d4d146100bd5780639cc7f708146100d7578063b6b55f2514610101578063f514ce3614610119578063fc0c546a1461012e575b600080fd5b34801561008857600080fd5b50610094600435610143565b6040805173ffffffffffffffffffffffffffffffffffffffff9092168252519081900360200190f35b3480156100c957600080fd5b506100d560043561016b565b005b3480156100e357600080fd5b506100ef600435610386565b60408051918252519081900360200190f35b34801561010d57600080fd5b506100d5600435610398565b34801561012557600080fd5b506100ef610535565b34801561013a57600080fd5b5061009461053b565b60016020526000908152604090205473ffffffffffffffffffffffffffffffffffffffff1681565b600081815260208190526040812054116101cf576040805160e560020a62461bcd02815260206004820152600c60248201527f42616c616e636520697320300000000000000000000000000000000000000000604482015290519081900360640190fd5b60008181526001602052604090205473ffffffffffffffffffffffffffffffffffffffff16331461024a576040805160e560020a62461bcd02815260206004820152601760248201527f4f6e6c79206f776e65722063616e207769746864726177000000000000000000604482015290519081900360640190fd5b6003546000828152602081815260408083205481517fa9059cbb0000000000000000000000000000000000000000000000000000000081523360048201526024810191909152905173ffffffffffffffffffffffffffffffffffffffff9094169363a9059cbb93604480840194938390030190829087803b1580156102ce57600080fd5b505af11580156102e2573d6000803e3d6000fd5b505050506040513d60208110156102f857600080fd5b50511515610350576040805160e560020a62461bcd02815260206004820152601760248201527f43616e206e6f74207472616e7366657220746f6b656e73000000000000000000604482015290519081900360640190fd5b60009081526020818152604080832083905560019091529020805473ffffffffffffffffffffffffffffffffffffffff19169055565b60009081526020819052604090205490565b600081116103f0576040805160e560020a62461bcd02815260206004820152601160248201527f43616e206e6f74206465706f7369742030000000000000000000000000000000604482015290519081900360640190fd5b600354604080517f23b872dd00000000000000000000000000000000000000000000000000000000815233600482015230602482015260448101849052905173ffffffffffffffffffffffffffffffffffffffff909216916323b872dd916064808201926020929091908290030181600087803b15801561047057600080fd5b505af1158015610484573d6000803e3d6000fd5b505050506040513d602081101561049a57600080fd5b505115156104a757600080fd5b6002546104bb90600163ffffffff61055716565b6002818155600091825260208281526040808420859055825484526001825292839020805473ffffffffffffffffffffffffffffffffffffffff19163390811790915591548351858152935190937fd0d9b5dcd0398e1dca2c5dd5b8fb41812c1486c95e9dc2096756952c402c64e992908290030190a350565b60025481565b60035473ffffffffffffffffffffffffffffffffffffffff1681565b8181018281101561056457fe5b929150505600a165627a7a7230582048d58a5e86290f43e47fa4950a0e47f0df8e1fd3d81779ee171b3a3bd22e4af90029",
  "source": "pragma solidity ^0.4.24;\n\nimport \"openzeppelin-solidity/contracts/math/SafeMath.sol\";\nimport \"openzeppelin-solidity/contracts/token/ERC20/StandardToken.sol\";\n\n\ncontract Plasmoid {\n    using SafeMath for uint256;\n\n    mapping (uint256 => uint256) private balances;\n    mapping (uint256 => address) public owners;\n\n    uint256 public uid;\n\n    StandardToken public token;\n\n    event DidDeposit(address indexed owner, uint256 indexed uid, uint256 amount);\n\n    constructor (address _tokenAddress) public {\n        token = StandardToken(_tokenAddress);\n        uid = 0;\n    }\n\n    function balanceOf (uint256 _uid) public view returns (uint256) {\n        return balances[_uid];\n    }\n\n    function deposit (uint256 amount) public {\n        require(amount > 0, \"Can not deposit 0\");\n        require(token.transferFrom(msg.sender, address(this), amount));\n        uid = uid.add(1);\n        balances[uid] = amount;\n        owners[uid] = msg.sender;\n\n        emit DidDeposit(msg.sender, uid, amount);\n    }\n\n    function withdraw (uint256 _uid) public {\n        require(balances[_uid] > 0, \"Balance is 0\");\n        require(owners[_uid] == msg.sender, \"Only owner can withdraw\");\n        require(token.transfer(msg.sender, balances[_uid]), \"Can not transfer tokens\");\n        delete balances[_uid];\n        delete owners[_uid];\n    }\n}\n",
  "sourcePath": "/Users/ukstv/Documents/Pro/Machinomy/plasmoid/contracts/Plasmoid.sol",
  "compiler": {
    "name": "solc",
    "version": "0.4.24+commit.e67f0147.Emscripten.clang"
  },
  "schemaVersion": "3.0.0-beta.0",
  "updatedAt": "2018-09-01T16:29:55.811Z"
}