{
  "contractName": "Plasmoid",
  "abi": [
    {
      "constant": true,
      "inputs": [
        {
          "name": "",
          "type": "uint256"
        }
      ],
      "name": "owners",
      "outputs": [
        {
          "name": "",
          "type": "address"
        }
      ],
      "payable": false,
      "stateMutability": "view",
      "type": "function"
    },
    {
      "constant": true,
      "inputs": [],
      "name": "uid",
      "outputs": [
        {
          "name": "",
          "type": "uint256"
        }
      ],
      "payable": false,
      "stateMutability": "view",
      "type": "function"
    },
    {
      "constant": true,
      "inputs": [],
      "name": "token",
      "outputs": [
        {
          "name": "",
          "type": "address"
        }
      ],
      "payable": false,
      "stateMutability": "view",
      "type": "function"
    },
    {
      "inputs": [
        {
          "name": "_tokenAddress",
          "type": "address"
        }
      ],
      "payable": false,
      "stateMutability": "nonpayable",
      "type": "constructor"
    },
    {
      "anonymous": false,
      "inputs": [
        {
          "indexed": true,
          "name": "uid",
          "type": "uint256"
        },
        {
          "indexed": true,
          "name": "owner",
          "type": "address"
        },
        {
          "indexed": false,
          "name": "amount",
          "type": "uint256"
        }
      ],
      "name": "DidDeposit",
      "type": "event"
    },
    {
      "anonymous": false,
      "inputs": [
        {
          "indexed": true,
          "name": "uid",
          "type": "uint256"
        },
        {
          "indexed": true,
          "name": "owner",
          "type": "address"
        },
        {
          "indexed": false,
          "name": "amount",
          "type": "uint256"
        }
      ],
      "name": "DidWithdraw",
      "type": "event"
    },
    {
      "anonymous": false,
      "inputs": [
        {
          "indexed": true,
          "name": "uid",
          "type": "uint256"
        },
        {
          "indexed": true,
          "name": "owner",
          "type": "address"
        },
        {
          "indexed": true,
          "name": "receiver",
          "type": "address"
        }
      ],
      "name": "DidTransfer",
      "type": "event"
    },
    {
      "anonymous": false,
      "inputs": [
        {
          "indexed": false,
          "name": "recovered",
          "type": "address"
        },
        {
          "indexed": false,
          "name": "expected",
          "type": "address"
        }
      ],
      "name": "Foo",
      "type": "event"
    },
    {
      "constant": true,
      "inputs": [
        {
          "name": "_uid",
          "type": "uint256"
        }
      ],
      "name": "balanceOf",
      "outputs": [
        {
          "name": "",
          "type": "uint256"
        }
      ],
      "payable": false,
      "stateMutability": "view",
      "type": "function"
    },
    {
      "constant": false,
      "inputs": [
        {
          "name": "_amount",
          "type": "uint256"
        }
      ],
      "name": "deposit",
      "outputs": [],
      "payable": false,
      "stateMutability": "nonpayable",
      "type": "function"
    },
    {
      "constant": false,
      "inputs": [
        {
          "name": "_uid",
          "type": "uint256"
        },
        {
          "name": "_receiver",
          "type": "address"
        },
        {
          "name": "_signature",
          "type": "bytes"
        }
      ],
      "name": "transfer",
      "outputs": [],
      "payable": false,
      "stateMutability": "nonpayable",
      "type": "function"
    },
    {
      "constant": false,
      "inputs": [
        {
          "name": "_uid",
          "type": "uint256"
        },
        {
          "name": "_receiver",
          "type": "address"
        },
        {
          "name": "_signature",
          "type": "bytes"
        }
      ],
      "name": "transferDelegate",
      "outputs": [],
      "payable": false,
      "stateMutability": "nonpayable",
      "type": "function"
    },
    {
      "constant": true,
      "inputs": [
        {
          "name": "_uid",
          "type": "uint256"
        },
        {
          "name": "_receiver",
          "type": "address"
        }
      ],
      "name": "transferDigest",
      "outputs": [
        {
          "name": "",
          "type": "bytes32"
        }
      ],
      "payable": false,
      "stateMutability": "view",
      "type": "function"
    },
    {
      "constant": false,
      "inputs": [
        {
          "name": "_hash",
          "type": "bytes32"
        },
        {
          "name": "_signatory",
          "type": "address"
        },
        {
          "name": "_signature",
          "type": "bytes"
        }
      ],
      "name": "isValidSignature",
      "outputs": [
        {
          "name": "",
          "type": "bool"
        }
      ],
      "payable": false,
      "stateMutability": "nonpayable",
      "type": "function"
    },
    {
      "constant": false,
      "inputs": [
        {
          "name": "_uid",
          "type": "uint256"
        }
      ],
      "name": "withdraw",
      "outputs": [],
      "payable": false,
      "stateMutability": "nonpayable",
      "type": "function"
    }
  ],
  "bytecode": "0x608060405234801561001057600080fd5b50604051602080610e34833981016040525160038054600160a060020a03909216600160a060020a03199092169190911790556000600255610ddd806100576000396000f3006080604052600436106100a25763ffffffff7c0100000000000000000000000000000000000000000000000000000000600035041662c017ca81146100a7578063025e7c27146101125780631f1b4764146101465780632e1a7d4d1461017c57806393634702146101945780639cc7f70814610211578063b6b55f2514610229578063de8c510314610241578063f514ce36146102aa578063fc0c546a146102bf575b600080fd5b3480156100b357600080fd5b50604080516020600460443581810135601f81018490048402850184019095528484526101109482359460248035600160a060020a0316953695946064949201919081908401838280828437509497506102d49650505050505050565b005b34801561011e57600080fd5b5061012a6004356103c2565b60408051600160a060020a039092168252519081900360200190f35b34801561015257600080fd5b5061016a600435600160a060020a03602435166103dd565b60408051918252519081900360200190f35b34801561018857600080fd5b506101106004356104ad565b3480156101a057600080fd5b50604080516020600460443581810135601f81018490048402850184019095528484526101fd9482359460248035600160a060020a0316953695946064949201919081908401838280828437509497506106f29650505050505050565b604080519115158252519081900360200190f35b34801561021d57600080fd5b5061016a600435610890565b34801561023557600080fd5b506101106004356108a2565b34801561024d57600080fd5b50604080516020600460443581810135601f81018490048402850184019095528484526101109482359460248035600160a060020a031695369594606494920191908190840183828082843750949750610a369650505050505050565b3480156102b657600080fd5b5061016a610b3e565b3480156102cb57600080fd5b5061012a610b44565b600083815260016020526040902054600160a060020a03166103006102f985856103dd565b82846106f2565b1515610356576040805160e560020a62461bcd02815260206004820152601760248201527f4f4e4c595f4f574e45525f43414e5f5452414e53464552000000000000000000604482015290519081900360640190fd5b600084815260016020526040808220805473ffffffffffffffffffffffffffffffffffffffff1916600160a060020a03878116918217909255915191929084169187917f6a40fd1d1bce324b8181b3041c13793a16ae926abad56b333240a41dc8c0fde991a450505050565b600160205260009081526040902054600160a060020a031681565b604080517f74000000000000000000000000000000000000000000000000000000000000006020808301919091526c01000000000000000000000000308102602184015260358301869052600160a060020a038516026055830152825160498184030181526069909201928390528151600093918291908401908083835b6020831061047a5780518252601f19909201916020918201910161045b565b5181516020939093036101000a600019018019909116921691909117905260405192018290039091209695505050505050565b60008181526001602090815260408083205491839052822054600160a060020a03909116918111610528576040805160e560020a62461bcd02815260206004820152600c60248201527f42616c616e636520697320300000000000000000000000000000000000000000604482015290519081900360640190fd5b600160a060020a0382163314610588576040805160e560020a62461bcd02815260206004820152601760248201527f4f6e6c79206f776e65722063616e207769746864726177000000000000000000604482015290519081900360640190fd5b600354604080517fa9059cbb000000000000000000000000000000000000000000000000000000008152600160a060020a038581166004830152602482018590529151919092169163a9059cbb9160448083019260209291908290030181600087803b1580156105f757600080fd5b505af115801561060b573d6000803e3d6000fd5b505050506040513d602081101561062157600080fd5b50511515610679576040805160e560020a62461bcd02815260206004820152601760248201527f43616e206e6f74207472616e7366657220746f6b656e73000000000000000000604482015290519081900360640190fd5b6000838152602081815260408083208390556001825291829020805473ffffffffffffffffffffffffffffffffffffffff1916905560025482518481529251600160a060020a0386169391927fe8f063b84290b3803235ab51b951ae0276860066ecfbe56b91d0f39a6c515525928290030190a3505050565b600080600080600061070386610b53565b7f010000000000000000000000000000000000000000000000000000000000000090049350600260ff851610610783576040805160e560020a62461bcd02815260206004820152601560248201527f5349474e41545552455f554e535550504f525445440000000000000000000000604482015290519081900360640190fd5b8360ff16600281111561079257fe5b925060008360028111156107a257fe5b14156107bb5733600160a060020a038816149450610885565b60018360028111156107c957fe5b1415610835576107d888610c1f565b91506107e48287610cc9565b60408051600160a060020a0380841682528a16602082015281519293507f8aec63b68dfaee860e984339126fdcb7b53de3d7519be43b96b87917ef13031f929081900390910190a160019450610885565b6040805160e560020a62461bcd02815260206004820152601560248201527f5349474e41545552455f554e535550504f525445440000000000000000000000604482015290519081900360640190fd5b505050509392505050565b60009081526020819052604090205490565b600081116108fa576040805160e560020a62461bcd02815260206004820152601160248201527f43616e206e6f74206465706f7369742030000000000000000000000000000000604482015290519081900360640190fd5b600354604080517f23b872dd000000000000000000000000000000000000000000000000000000008152336004820152306024820152604481018490529051600160a060020a03909216916323b872dd916064808201926020929091908290030181600087803b15801561096d57600080fd5b505af1158015610981573d6000803e3d6000fd5b505050506040513d602081101561099757600080fd5b505115156109a457600080fd5b6002546109b890600163ffffffff610d9e16565b6002818155600091825260208281526040808420859055825484526001825292839020805473ffffffffffffffffffffffffffffffffffffffff191633908117909155915483518581529351929390927f18b132744288679626598e27370ac2f7ebb000bf584bbb6fc9f575163a4a881c929181900390910190a350565b6000806000610a4d610a4887876103dd565b610c1f565b9250610a598385610cc9565b600087815260016020526040902054909250600160a060020a03908116915082168114610ad0576040805160e560020a62461bcd02815260206004820152601760248201527f4f4e4c595f4f574e45525f43414e5f5452414e53464552000000000000000000604482015290519081900360640190fd5b600086815260016020526040808220805473ffffffffffffffffffffffffffffffffffffffff1916600160a060020a03898116918217909255915191929084169189917f6a40fd1d1bce324b8181b3041c13793a16ae926abad56b333240a41dc8c0fde991a4505050505050565b60025481565b600354600160a060020a031681565b6000808251111515610bd5576040805160e560020a62461bcd02815260206004820152602160248201527f475245415445525f5448414e5f5a45524f5f4c454e4754485f5245515549524560448201527f4400000000000000000000000000000000000000000000000000000000000000606482015290519081900360840190fd5b815182906000198101908110610be757fe5b0160200151825160001901909252507f0100000000000000000000000000000000000000000000000000000000000000908190040290565b604080517f19457468657265756d205369676e6564204d6573736167653a0a333200000000602080830191909152603c80830185905283518084039091018152605c909201928390528151600093918291908401908083835b60208310610c975780518252601f199092019160209182019101610c78565b5181516020939093036101000a6000190180199091169216919091179052604051920182900390912095945050505050565b60008060008084516041141515610ce35760009350610d95565b50505060208201516040830151606084015160001a601b60ff82161015610d0857601b015b8060ff16601b14158015610d2057508060ff16601c14155b15610d2e5760009350610d95565b60408051600080825260208083018085528a905260ff8516838501526060830187905260808301869052925160019360a0808501949193601f19840193928390039091019190865af1158015610d88573d6000803e3d6000fd5b5050506020604051035193505b50505092915050565b81810182811015610dab57fe5b929150505600a165627a7a72305820efcd15774c1f5ae745727948dc8ab5841db3a06c35004f8f160c50ed08db55310029",
  "source": "pragma solidity ^0.4.24;\n\nimport \"openzeppelin-solidity/contracts/math/SafeMath.sol\";\nimport \"openzeppelin-solidity/contracts/ECRecovery.sol\";\nimport \"openzeppelin-solidity/contracts/token/ERC20/StandardToken.sol\";\nimport \"./LibBytes.sol\";\n\n\ncontract Plasmoid {\n    using SafeMath for uint256;\n    using LibBytes for bytes;\n\n    mapping (uint256 => uint256) private balances;\n    mapping (uint256 => address) public owners;\n\n    uint256 public uid;\n\n    StandardToken public token;\n\n    event DidDeposit(uint256 indexed uid, address indexed owner, uint256 amount);\n    event DidWithdraw(uint256 indexed uid, address indexed owner, uint256 amount);\n    event DidTransfer(uint256 indexed uid, address indexed owner, address indexed receiver);\n\n    enum SignatureType {\n        Caller, // 0x00\n        EthSign, // 0x01\n        MAX\n    }\n\n    constructor (address _tokenAddress) public {\n        token = StandardToken(_tokenAddress);\n        uid = 0;\n    }\n\n    function balanceOf (uint256 _uid) public view returns (uint256) {\n        return balances[_uid];\n    }\n\n    function deposit (uint256 _amount) public {\n        require(_amount > 0, \"Can not deposit 0\");\n        require(token.transferFrom(msg.sender, address(this), _amount));\n        uid = uid.add(1);\n        balances[uid] = _amount;\n        owners[uid] = msg.sender;\n\n        emit DidDeposit(uid, msg.sender, _amount);\n    }\n\n    function transfer(uint256 _uid, address _receiver, bytes _signature) public {\n        address owner = owners[_uid];\n\n        require(isValidSignature(transferDigest(_uid, _receiver), owner, _signature), \"ONLY_OWNER_CAN_TRANSFER\");\n\n        owners[_uid] = _receiver;\n\n        emit DidTransfer(_uid, owner, _receiver);\n    }\n\n    function transferDelegate (uint256 _uid, address _receiver, bytes _signature) public {\n        bytes32 recoveryDigest = ECRecovery.toEthSignedMessageHash(transferDigest(_uid, _receiver));\n        address recovered = ECRecovery.recover(recoveryDigest, _signature);\n        address owner = owners[_uid];\n        require(recovered == owner, \"ONLY_OWNER_CAN_TRANSFER\");\n        owners[_uid] = _receiver;\n        emit DidTransfer(_uid, owner, _receiver);\n    }\n\n    function transferDigest (uint256 _uid, address _receiver) public view returns (bytes32) {\n        return keccak256(abi.encodePacked(\"t\", address(this), _uid, _receiver));\n    }\n\n    event Foo(address recovered, address expected);\n    function isValidSignature (bytes32 _hash, address _signatory, bytes _signature) public returns (bool) {\n        uint8 signatureTypeRaw = uint8(_signature.popLastByte());\n        require(signatureTypeRaw < uint8(SignatureType.MAX), \"SIGNATURE_UNSUPPORTED\");\n        SignatureType signatureType = SignatureType(signatureTypeRaw);\n        if (signatureType == SignatureType.Caller) {\n            return msg.sender == _signatory;\n        } else if (signatureType == SignatureType.EthSign) {\n            bytes32 recoveryHash = ECRecovery.toEthSignedMessageHash(_hash);\n            address recovered = ECRecovery.recover(recoveryHash, _signature);\n            emit Foo(recovered, _signatory);\n            return true;\n        } else {\n            revert(\"SIGNATURE_UNSUPPORTED\");\n        }\n    }\n\n    function withdraw (uint256 _uid) public {\n        address owner = owners[_uid];\n        uint256 amount = balances[_uid];\n\n        require(amount > 0, \"Balance is 0\");\n        require(owner == msg.sender, \"Only owner can withdraw\");\n        require(token.transfer(owner, amount), \"Can not transfer tokens\");\n        delete balances[_uid];\n        delete owners[_uid];\n\n        emit DidWithdraw(uid, owner, amount);\n    }\n}\n",
  "sourcePath": "/Users/ukstv/Documents/Pro/Machinomy/plasmoid/contracts/Plasmoid.sol",
  "compiler": {
    "name": "solc",
    "version": "0.4.24+commit.e67f0147.Emscripten.clang"
  },
  "schemaVersion": "3.0.0-beta.0",
  "updatedAt": "2018-09-02T21:37:12.429Z"
}