{
  "contractName": "Plasmoid",
  "abi": [
    {
      "constant": true,
      "inputs": [],
      "name": "token",
      "outputs": [
        {
          "name": "",
          "type": "address"
        }
      ],
      "payable": false,
      "stateMutability": "view",
      "type": "function"
    },
    {
      "inputs": [
        {
          "name": "_tokenAddress",
          "type": "address"
        }
      ],
      "payable": false,
      "stateMutability": "nonpayable",
      "type": "constructor"
    },
    {
      "constant": true,
      "inputs": [
        {
          "name": "owner",
          "type": "address"
        }
      ],
      "name": "balanceOf",
      "outputs": [
        {
          "name": "",
          "type": "uint256"
        }
      ],
      "payable": false,
      "stateMutability": "view",
      "type": "function"
    },
    {
      "constant": false,
      "inputs": [
        {
          "name": "amount",
          "type": "uint256"
        }
      ],
      "name": "deposit",
      "outputs": [],
      "payable": false,
      "stateMutability": "nonpayable",
      "type": "function"
    },
    {
      "constant": false,
      "inputs": [],
      "name": "withdraw",
      "outputs": [],
      "payable": false,
      "stateMutability": "nonpayable",
      "type": "function"
    }
  ],
  "bytecode": "0x608060405234801561001057600080fd5b506040516020806103f2833981016040525160018054600160a060020a031916600160a060020a039092169190911790556103a2806100506000396000f3006080604052600436106100615763ffffffff7c01000000000000000000000000000000000000000000000000000000006000350416633ccfd60b811461006657806370a082311461007d578063b6b55f25146100bd578063fc0c546a146100d5575b600080fd5b34801561007257600080fd5b5061007b610113565b005b34801561008957600080fd5b506100ab73ffffffffffffffffffffffffffffffffffffffff60043516610240565b60408051918252519081900360200190f35b3480156100c957600080fd5b5061007b600435610268565b3480156100e157600080fd5b506100ea610347565b6040805173ffffffffffffffffffffffffffffffffffffffff9092168252519081900360200190f35b336000908152602081905260408120541161018f57604080517f08c379a000000000000000000000000000000000000000000000000000000000815260206004820152600c60248201527f42616c616e636520697320300000000000000000000000000000000000000000604482015290519081900360640190fd5b600154336000818152602081815260408083205481517fa9059cbb000000000000000000000000000000000000000000000000000000008152600481019590955260248501525173ffffffffffffffffffffffffffffffffffffffff9094169363a9059cbb93604480820194918390030190829087803b15801561021257600080fd5b505af1158015610226573d6000803e3d6000fd5b505050506040513d602081101561023c57600080fd5b5050565b73ffffffffffffffffffffffffffffffffffffffff1660009081526020819052604090205490565b600154604080517f23b872dd00000000000000000000000000000000000000000000000000000000815233600482015230602482015260448101849052905173ffffffffffffffffffffffffffffffffffffffff909216916323b872dd916064808201926020929091908290030181600087803b1580156102e857600080fd5b505af11580156102fc573d6000803e3d6000fd5b505050506040513d602081101561031257600080fd5b505033600090815260208190526040902054610334908263ffffffff61036316565b3360009081526020819052604090205550565b60015473ffffffffffffffffffffffffffffffffffffffff1681565b8181018281101561037057fe5b929150505600a165627a7a7230582054068e652c0e73e6f9e3d9008474b3127648e79ade2530aa7cbd14f5684e09e10029",
  "source": "pragma solidity ^0.4.24;\n\nimport \"openzeppelin-solidity/contracts/math/SafeMath.sol\";\nimport \"openzeppelin-solidity/contracts/token/ERC20/MintableToken.sol\";\n\n\ncontract Plasmoid {\n    using SafeMath for uint256;\n\n    mapping (address => uint256) private balances;\n    MintableToken public token;\n\n    constructor (address _tokenAddress) public {\n        token = MintableToken(_tokenAddress);\n    }\n\n    function balanceOf (address owner) public view returns (uint256) {\n        return balances[owner];\n    }\n\n    function deposit (uint256 amount) public {\n        token.transferFrom(msg.sender, address(this), amount);\n        balances[msg.sender] = balances[msg.sender].add(amount);\n    }\n\n    function withdraw () public {\n        require(balances[msg.sender] > 0, \"Balance is 0\");\n        token.transfer(msg.sender, balances[msg.sender]);\n    }\n}\n",
  "sourcePath": "/Users/user/Desktop/projects/plasmoid/contracts/Plasmoid.sol",
  "compiler": {
    "name": "solc",
    "version": "0.4.24+commit.e67f0147.Emscripten.clang"
  },
  "schemaVersion": "2.0.1",
  "updatedAt": "2018-08-31T17:33:09.895Z"
}