{
  "contractName": "Plasmoid",
  "abi": [
    {
      "constant": true,
      "inputs": [
        {
          "name": "owner",
          "type": "address"
        }
      ],
      "name": "balanceOf",
      "outputs": [
        {
          "name": "",
          "type": "uint256"
        }
      ],
      "payable": false,
      "stateMutability": "view",
      "type": "function"
    }
  ],
  "bytecode": "0x608060405234801561001057600080fd5b5060d48061001f6000396000f300608060405260043610603e5763ffffffff7c010000000000000000000000000000000000000000000000000000000060003504166370a0823181146043575b600080fd5b348015604e57600080fd5b50606e73ffffffffffffffffffffffffffffffffffffffff600435166080565b60408051918252519081900360200190f35b73ffffffffffffffffffffffffffffffffffffffff16600090815260208190526040902054905600a165627a7a72305820928fcf6a14f1232029c96626ac7b6390d39902a987412148f5c2c1b1f92ce5350029",
  "source": "pragma solidity ^0.4.24;\n\nimport \"zeppelin-solidity/contracts/math/SafeMath.sol\";\n\n\ncontract Plasmoid {\n    using SafeMath for uint256;\n\n    mapping (address => uint256) private balances;\n\n    function balanceOf(address owner) public view returns (uint256) {\n        return balances[owner];\n    }\n\n\n}\n",
  "sourcePath": "/Users/user/Desktop/projects/plasmoid/contracts/Plasmoid.sol",
  "compiler": {
    "name": "solc",
    "version": "0.4.24+commit.e67f0147.Emscripten.clang"
  },
  "schemaVersion": "2.0.1",
  "updatedAt": "2018-08-31T13:55:16.624Z"
}