{
  "contractName": "Plasmoid",
  "abi": [
    {
      "constant": true,
      "inputs": [
        {
          "name": "",
          "type": "uint256"
        }
      ],
      "name": "owners",
      "outputs": [
        {
          "name": "",
          "type": "address"
        }
      ],
      "payable": false,
      "stateMutability": "view",
      "type": "function"
    },
    {
      "constant": true,
      "inputs": [],
      "name": "uid",
      "outputs": [
        {
          "name": "",
          "type": "uint256"
        }
      ],
      "payable": false,
      "stateMutability": "view",
      "type": "function"
    },
    {
      "constant": true,
      "inputs": [],
      "name": "token",
      "outputs": [
        {
          "name": "",
          "type": "address"
        }
      ],
      "payable": false,
      "stateMutability": "view",
      "type": "function"
    },
    {
      "inputs": [
        {
          "name": "_tokenAddress",
          "type": "address"
        }
      ],
      "payable": false,
      "stateMutability": "nonpayable",
      "type": "constructor"
    },
    {
      "anonymous": false,
      "inputs": [
        {
          "indexed": true,
          "name": "uid",
          "type": "uint256"
        },
        {
          "indexed": true,
          "name": "owner",
          "type": "address"
        },
        {
          "indexed": false,
          "name": "amount",
          "type": "uint256"
        }
      ],
      "name": "DidDeposit",
      "type": "event"
    },
    {
      "anonymous": false,
      "inputs": [
        {
          "indexed": true,
          "name": "uid",
          "type": "uint256"
        },
        {
          "indexed": true,
          "name": "owner",
          "type": "address"
        },
        {
          "indexed": false,
          "name": "amount",
          "type": "uint256"
        }
      ],
      "name": "DidWithdraw",
      "type": "event"
    },
    {
      "anonymous": false,
      "inputs": [
        {
          "indexed": true,
          "name": "uid",
          "type": "uint256"
        },
        {
          "indexed": true,
          "name": "owner",
          "type": "address"
        },
        {
          "indexed": true,
          "name": "receiver",
          "type": "address"
        }
      ],
      "name": "DidTransfer",
      "type": "event"
    },
    {
      "constant": true,
      "inputs": [
        {
          "name": "_uid",
          "type": "uint256"
        }
      ],
      "name": "balanceOf",
      "outputs": [
        {
          "name": "",
          "type": "uint256"
        }
      ],
      "payable": false,
      "stateMutability": "view",
      "type": "function"
    },
    {
      "constant": false,
      "inputs": [
        {
          "name": "_amount",
          "type": "uint256"
        }
      ],
      "name": "deposit",
      "outputs": [],
      "payable": false,
      "stateMutability": "nonpayable",
      "type": "function"
    },
    {
      "constant": false,
      "inputs": [
        {
          "name": "_uid",
          "type": "uint256"
        },
        {
          "name": "receiver",
          "type": "address"
        }
      ],
      "name": "transfer",
      "outputs": [],
      "payable": false,
      "stateMutability": "nonpayable",
      "type": "function"
    },
    {
      "constant": false,
      "inputs": [
        {
          "name": "_uid",
          "type": "uint256"
        }
      ],
      "name": "withdraw",
      "outputs": [],
      "payable": false,
      "stateMutability": "nonpayable",
      "type": "function"
    }
  ],
  "bytecode": "0x608060405234801561001057600080fd5b506040516020806106f0833981016040525160038054600160a060020a03909216600160a060020a03199092169190911790556000600255610699806100576000396000f3006080604052600436106100825763ffffffff7c0100000000000000000000000000000000000000000000000000000000600035041663025e7c2781146100875780632e1a7d4d146100bb5780639cc7f708146100d5578063b6b55f25146100ff578063b7760c8f14610117578063f514ce361461013b578063fc0c546a14610150575b600080fd5b34801561009357600080fd5b5061009f600435610165565b60408051600160a060020a039092168252519081900360200190f35b3480156100c757600080fd5b506100d3600435610180565b005b3480156100e157600080fd5b506100ed6004356103c5565b60408051918252519081900360200190f35b34801561010b57600080fd5b506100d36004356103d7565b34801561012357600080fd5b506100d3600435600160a060020a036024351661056b565b34801561014757600080fd5b506100ed610645565b34801561015c57600080fd5b5061009f61064b565b600160205260009081526040902054600160a060020a031681565b60008181526001602090815260408083205491839052822054600160a060020a039091169181116101fb576040805160e560020a62461bcd02815260206004820152600c60248201527f42616c616e636520697320300000000000000000000000000000000000000000604482015290519081900360640190fd5b600160a060020a038216331461025b576040805160e560020a62461bcd02815260206004820152601760248201527f4f6e6c79206f776e65722063616e207769746864726177000000000000000000604482015290519081900360640190fd5b600354604080517fa9059cbb000000000000000000000000000000000000000000000000000000008152600160a060020a038581166004830152602482018590529151919092169163a9059cbb9160448083019260209291908290030181600087803b1580156102ca57600080fd5b505af11580156102de573d6000803e3d6000fd5b505050506040513d60208110156102f457600080fd5b5051151561034c576040805160e560020a62461bcd02815260206004820152601760248201527f43616e206e6f74207472616e7366657220746f6b656e73000000000000000000604482015290519081900360640190fd5b6000838152602081815260408083208390556001825291829020805473ffffffffffffffffffffffffffffffffffffffff1916905560025482518481529251600160a060020a0386169391927fe8f063b84290b3803235ab51b951ae0276860066ecfbe56b91d0f39a6c515525928290030190a3505050565b60009081526020819052604090205490565b6000811161042f576040805160e560020a62461bcd02815260206004820152601160248201527f43616e206e6f74206465706f7369742030000000000000000000000000000000604482015290519081900360640190fd5b600354604080517f23b872dd000000000000000000000000000000000000000000000000000000008152336004820152306024820152604481018490529051600160a060020a03909216916323b872dd916064808201926020929091908290030181600087803b1580156104a257600080fd5b505af11580156104b6573d6000803e3d6000fd5b505050506040513d60208110156104cc57600080fd5b505115156104d957600080fd5b6002546104ed90600163ffffffff61065a16565b6002818155600091825260208281526040808420859055825484526001825292839020805473ffffffffffffffffffffffffffffffffffffffff191633908117909155915483518581529351929390927f18b132744288679626598e27370ac2f7ebb000bf584bbb6fc9f575163a4a881c929181900390910190a350565b600082815260016020526040902054600160a060020a03163381146105da576040805160e560020a62461bcd02815260206004820152601760248201527f4f6e6c79206f776e65722063616e207472616e73666572000000000000000000604482015290519081900360640190fd5b600083815260016020526040808220805473ffffffffffffffffffffffffffffffffffffffff1916600160a060020a03868116918217909255915191929084169186917f6a40fd1d1bce324b8181b3041c13793a16ae926abad56b333240a41dc8c0fde991a4505050565b60025481565b600354600160a060020a031681565b8181018281101561066757fe5b929150505600a165627a7a72305820661e3b1e83912c84c706f921f55370a4bc1203261c1b16c313eb6a52a84848630029",
  "source": "pragma solidity ^0.4.24;\n\nimport \"openzeppelin-solidity/contracts/math/SafeMath.sol\";\nimport \"openzeppelin-solidity/contracts/token/ERC20/StandardToken.sol\";\n\n\ncontract Plasmoid {\n    using SafeMath for uint256;\n\n    mapping (uint256 => uint256) private balances;\n    mapping (uint256 => address) public owners;\n\n    uint256 public uid;\n\n    StandardToken public token;\n\n    event DidDeposit(uint256 indexed uid, address indexed owner, uint256 amount);\n    event DidWithdraw(uint256 indexed uid, address indexed owner, uint256 amount);\n    event DidTransfer(uint256 indexed uid, address indexed owner, address indexed receiver);\n\n    constructor (address _tokenAddress) public {\n        token = StandardToken(_tokenAddress);\n        uid = 0;\n    }\n\n    function balanceOf (uint256 _uid) public view returns (uint256) {\n        return balances[_uid];\n    }\n\n    function deposit (uint256 _amount) public {\n        require(_amount > 0, \"Can not deposit 0\");\n        require(token.transferFrom(msg.sender, address(this), _amount));\n        uid = uid.add(1);\n        balances[uid] = _amount;\n        owners[uid] = msg.sender;\n\n        emit DidDeposit(uid, msg.sender, _amount);\n    }\n\n    function transfer(uint256 _uid, address receiver) public {\n        address owner = owners[_uid];\n        require(owner == msg.sender, \"Only owner can transfer\");\n        owners[_uid] = receiver;\n\n        emit DidTransfer(_uid, owner, receiver);\n    }\n\n    function withdraw (uint256 _uid) public {\n        address owner = owners[_uid];\n        uint256 amount = balances[_uid];\n\n        require(amount > 0, \"Balance is 0\");\n        require(owner == msg.sender, \"Only owner can withdraw\");\n        require(token.transfer(owner, amount), \"Can not transfer tokens\");\n        delete balances[_uid];\n        delete owners[_uid];\n\n        emit DidWithdraw(uid, owner, amount);\n    }\n}\n",
  "sourcePath": "/Users/ukstv/Documents/Pro/Machinomy/plasmoid/contracts/Plasmoid.sol",
  "compiler": {
    "name": "solc",
    "version": "0.4.24+commit.e67f0147.Emscripten.clang"
  },
  "schemaVersion": "3.0.0-beta.0",
  "updatedAt": "2018-09-01T16:58:17.786Z"
}