{
  "contractName": "Plasmoid",
  "abi": [
    {
      "constant": true,
      "inputs": [
        {
          "name": "",
          "type": "uint256"
        }
      ],
      "name": "fastWithdrawals",
      "outputs": [
        {
          "name": "id",
          "type": "uint256"
        },
        {
          "name": "slotHash",
          "type": "bytes32"
        },
        {
          "name": "amount",
          "type": "uint256"
        },
        {
          "name": "timestamp",
          "type": "uint256"
        }
      ],
      "payable": false,
      "stateMutability": "view",
      "type": "function"
    },
    {
      "constant": true,
      "inputs": [
        {
          "name": "",
          "type": "uint256"
        }
      ],
      "name": "stateQueryQueue",
      "outputs": [
        {
          "name": "id",
          "type": "uint256"
        },
        {
          "name": "checkpointID",
          "type": "uint256"
        },
        {
          "name": "slotID",
          "type": "uint256"
        },
        {
          "name": "timestamp",
          "type": "uint256"
        }
      ],
      "payable": false,
      "stateMutability": "view",
      "type": "function"
    },
    {
      "constant": true,
      "inputs": [],
      "name": "fastWithdrawalIDNow",
      "outputs": [
        {
          "name": "",
          "type": "uint256"
        }
      ],
      "payable": false,
      "stateMutability": "view",
      "type": "function"
    },
    {
      "constant": true,
      "inputs": [],
      "name": "currentCheckpointId",
      "outputs": [
        {
          "name": "",
          "type": "uint256"
        }
      ],
      "payable": false,
      "stateMutability": "view",
      "type": "function"
    },
    {
      "constant": true,
      "inputs": [],
      "name": "halt",
      "outputs": [
        {
          "name": "",
          "type": "bool"
        }
      ],
      "payable": false,
      "stateMutability": "view",
      "type": "function"
    },
    {
      "constant": false,
      "inputs": [],
      "name": "renounceOwnership",
      "outputs": [],
      "payable": false,
      "stateMutability": "nonpayable",
      "type": "function"
    },
    {
      "constant": true,
      "inputs": [],
      "name": "stateQueryPeriod",
      "outputs": [
        {
          "name": "",
          "type": "uint256"
        }
      ],
      "payable": false,
      "stateMutability": "view",
      "type": "function"
    },
    {
      "constant": true,
      "inputs": [],
      "name": "withdrawalQueueIDNow",
      "outputs": [
        {
          "name": "",
          "type": "uint256"
        }
      ],
      "payable": false,
      "stateMutability": "view",
      "type": "function"
    },
    {
      "constant": true,
      "inputs": [],
      "name": "owner",
      "outputs": [
        {
          "name": "",
          "type": "address"
        }
      ],
      "payable": false,
      "stateMutability": "view",
      "type": "function"
    },
    {
      "constant": true,
      "inputs": [
        {
          "name": "_depositID",
          "type": "uint256"
        },
        {
          "name": "_amount",
          "type": "uint256"
        }
      ],
      "name": "depositWithdrawDigest",
      "outputs": [
        {
          "name": "",
          "type": "bytes32"
        }
      ],
      "payable": false,
      "stateMutability": "view",
      "type": "function"
    },
    {
      "constant": true,
      "inputs": [
        {
          "name": "",
          "type": "uint256"
        }
      ],
      "name": "transactions",
      "outputs": [
        {
          "name": "id",
          "type": "uint256"
        },
        {
          "name": "checkpointID",
          "type": "uint256"
        },
        {
          "name": "txID",
          "type": "uint256"
        },
        {
          "name": "timestamp",
          "type": "uint256"
        }
      ],
      "payable": false,
      "stateMutability": "view",
      "type": "function"
    },
    {
      "constant": false,
      "inputs": [
        {
          "name": "_depositWithdrawalID",
          "type": "uint256"
        },
        {
          "name": "_proofTransactions",
          "type": "bytes"
        },
        {
          "name": "_proofChanges",
          "type": "bytes"
        },
        {
          "name": "_proofAccounts",
          "type": "bytes"
        }
      ],
      "name": "challengeDepositWithdraw",
      "outputs": [],
      "payable": false,
      "stateMutability": "nonpayable",
      "type": "function"
    },
    {
      "constant": false,
      "inputs": [
        {
          "name": "depositWithdrawalID",
          "type": "uint256"
        }
      ],
      "name": "finaliseDepositWithdraw",
      "outputs": [],
      "payable": false,
      "stateMutability": "nonpayable",
      "type": "function"
    },
    {
      "constant": true,
      "inputs": [
        {
          "name": "",
          "type": "uint256"
        }
      ],
      "name": "deposits",
      "outputs": [
        {
          "name": "id",
          "type": "uint256"
        },
        {
          "name": "amount",
          "type": "uint256"
        },
        {
          "name": "lock",
          "type": "address"
        },
        {
          "name": "timestamp",
          "type": "uint256"
        }
      ],
      "payable": false,
      "stateMutability": "view",
      "type": "function"
    },
    {
      "constant": true,
      "inputs": [],
      "name": "currentDepositId",
      "outputs": [
        {
          "name": "",
          "type": "uint256"
        }
      ],
      "payable": false,
      "stateMutability": "view",
      "type": "function"
    },
    {
      "constant": false,
      "inputs": [
        {
          "name": "_amount",
          "type": "uint256"
        }
      ],
      "name": "deposit",
      "outputs": [],
      "payable": false,
      "stateMutability": "nonpayable",
      "type": "function"
    },
    {
      "constant": true,
      "inputs": [],
      "name": "depositWithdrawalPeriod",
      "outputs": [
        {
          "name": "",
          "type": "uint256"
        }
      ],
      "payable": false,
      "stateMutability": "view",
      "type": "function"
    },
    {
      "constant": true,
      "inputs": [
        {
          "name": "",
          "type": "uint256"
        }
      ],
      "name": "checkpoints",
      "outputs": [
        {
          "name": "id",
          "type": "uint256"
        },
        {
          "name": "transactionsMerkleRoot",
          "type": "bytes32"
        },
        {
          "name": "changesSparseMerkleRoot",
          "type": "bytes32"
        },
        {
          "name": "accountsStateSparseMerkleRoot",
          "type": "bytes32"
        },
        {
          "name": "valid",
          "type": "bool"
        }
      ],
      "payable": false,
      "stateMutability": "view",
      "type": "function"
    },
    {
      "constant": true,
      "inputs": [],
      "name": "withdrawalPeriod",
      "outputs": [
        {
          "name": "",
          "type": "uint256"
        }
      ],
      "payable": false,
      "stateMutability": "view",
      "type": "function"
    },
    {
      "constant": true,
      "inputs": [
        {
          "name": "",
          "type": "uint256"
        }
      ],
      "name": "depositWithdrawalQueue",
      "outputs": [
        {
          "name": "id",
          "type": "uint256"
        },
        {
          "name": "depositID",
          "type": "uint256"
        },
        {
          "name": "unlock",
          "type": "bytes"
        },
        {
          "name": "owner",
          "type": "address"
        },
        {
          "name": "checkpointID",
          "type": "uint256"
        }
      ],
      "payable": false,
      "stateMutability": "view",
      "type": "function"
    },
    {
      "constant": false,
      "inputs": [
        {
          "name": "_depositID",
          "type": "uint256"
        },
        {
          "name": "_amount",
          "type": "uint256"
        },
        {
          "name": "_lock",
          "type": "address"
        },
        {
          "name": "_unlock",
          "type": "bytes"
        },
        {
          "name": "_checkpointTransactionsMerkleRoot",
          "type": "bytes32"
        },
        {
          "name": "_checkpointChangesSparseMerkleRoot",
          "type": "bytes32"
        },
        {
          "name": "_checkpointAccountsStateSparseMerkleRoot",
          "type": "bytes32"
        },
        {
          "name": "_proofTransactions",
          "type": "bytes"
        },
        {
          "name": "_proofChanges",
          "type": "bytes"
        },
        {
          "name": "_proofAccounts",
          "type": "bytes"
        }
      ],
      "name": "depositWithdrawProve",
      "outputs": [
        {
          "name": "",
          "type": "bool"
        }
      ],
      "payable": false,
      "stateMutability": "nonpayable",
      "type": "function"
    },
    {
      "constant": true,
      "inputs": [
        {
          "name": "",
          "type": "uint256"
        }
      ],
      "name": "withdrawalQueue",
      "outputs": [
        {
          "name": "id",
          "type": "uint256"
        },
        {
          "name": "checkpointID",
          "type": "uint256"
        },
        {
          "name": "amount",
          "type": "uint256"
        },
        {
          "name": "lock",
          "type": "address"
        },
        {
          "name": "timestamp",
          "type": "uint256"
        }
      ],
      "payable": false,
      "stateMutability": "view",
      "type": "function"
    },
    {
      "constant": true,
      "inputs": [],
      "name": "fastWithdrawalPeriod",
      "outputs": [
        {
          "name": "",
          "type": "uint256"
        }
      ],
      "payable": false,
      "stateMutability": "view",
      "type": "function"
    },
    {
      "constant": true,
      "inputs": [],
      "name": "stateQueryQueueIDNow",
      "outputs": [
        {
          "name": "",
          "type": "uint256"
        }
      ],
      "payable": false,
      "stateMutability": "view",
      "type": "function"
    },
    {
      "constant": true,
      "inputs": [],
      "name": "settlingPeriod",
      "outputs": [
        {
          "name": "",
          "type": "uint256"
        }
      ],
      "payable": false,
      "stateMutability": "view",
      "type": "function"
    },
    {
      "constant": true,
      "inputs": [
        {
          "name": "",
          "type": "address"
        }
      ],
      "name": "trustedTransactionsList",
      "outputs": [
        {
          "name": "",
          "type": "bool"
        }
      ],
      "payable": false,
      "stateMutability": "view",
      "type": "function"
    },
    {
      "constant": false,
      "inputs": [
        {
          "name": "_newOwner",
          "type": "address"
        }
      ],
      "name": "transferOwnership",
      "outputs": [],
      "payable": false,
      "stateMutability": "nonpayable",
      "type": "function"
    },
    {
      "constant": true,
      "inputs": [],
      "name": "depositWithdrawalQueueIDNow",
      "outputs": [
        {
          "name": "",
          "type": "uint256"
        }
      ],
      "payable": false,
      "stateMutability": "view",
      "type": "function"
    },
    {
      "constant": true,
      "inputs": [],
      "name": "token",
      "outputs": [
        {
          "name": "",
          "type": "address"
        }
      ],
      "payable": false,
      "stateMutability": "view",
      "type": "function"
    },
    {
      "constant": false,
      "inputs": [
        {
          "name": "_depositID",
          "type": "uint256"
        },
        {
          "name": "_unlock",
          "type": "bytes"
        }
      ],
      "name": "depositWithdraw",
      "outputs": [],
      "payable": false,
      "stateMutability": "nonpayable",
      "type": "function"
    },
    {
      "inputs": [
        {
          "name": "_tokenAddress",
          "type": "address"
        },
        {
          "name": "_settlingPeriod",
          "type": "uint256"
        },
        {
          "name": "_depositWithdrawalPeriod",
          "type": "uint256"
        },
        {
          "name": "_withdrawalPeriod",
          "type": "uint256"
        },
        {
          "name": "_stateQueryPeriod",
          "type": "uint256"
        }
      ],
      "payable": false,
      "stateMutability": "nonpayable",
      "type": "constructor"
    },
    {
      "anonymous": false,
      "inputs": [
        {
          "indexed": false,
          "name": "id",
          "type": "uint256"
        },
        {
          "indexed": false,
          "name": "checkpointID",
          "type": "uint256"
        },
        {
          "indexed": false,
          "name": "slotID",
          "type": "uint256"
        },
        {
          "indexed": false,
          "name": "timestamp",
          "type": "uint256"
        }
      ],
      "name": "DidQuerySlot",
      "type": "event"
    },
    {
      "anonymous": false,
      "inputs": [
        {
          "indexed": false,
          "name": "id",
          "type": "uint64"
        }
      ],
      "name": "DidResponseQueryState",
      "type": "event"
    },
    {
      "anonymous": false,
      "inputs": [
        {
          "indexed": false,
          "name": "id",
          "type": "uint256"
        }
      ],
      "name": "DidMakeCheckpoint",
      "type": "event"
    },
    {
      "anonymous": false,
      "inputs": [
        {
          "indexed": false,
          "name": "id",
          "type": "uint256"
        },
        {
          "indexed": false,
          "name": "slotHash",
          "type": "bytes32"
        },
        {
          "indexed": false,
          "name": "amount",
          "type": "uint256"
        },
        {
          "indexed": false,
          "name": "timestamp",
          "type": "uint256"
        }
      ],
      "name": "DidStartFastWithdrawal",
      "type": "event"
    },
    {
      "anonymous": false,
      "inputs": [
        {
          "indexed": false,
          "name": "id",
          "type": "uint256"
        }
      ],
      "name": "DidFinaliseFastWithdrawal",
      "type": "event"
    },
    {
      "anonymous": false,
      "inputs": [
        {
          "indexed": false,
          "name": "id",
          "type": "uint256"
        },
        {
          "indexed": false,
          "name": "checkpointID",
          "type": "uint256"
        },
        {
          "indexed": false,
          "name": "amount",
          "type": "uint256"
        },
        {
          "indexed": false,
          "name": "lock",
          "type": "address"
        },
        {
          "indexed": false,
          "name": "unlock",
          "type": "bytes"
        },
        {
          "indexed": false,
          "name": "timestamp",
          "type": "uint256"
        }
      ],
      "name": "DidStartWithdrawal",
      "type": "event"
    },
    {
      "anonymous": false,
      "inputs": [
        {
          "indexed": false,
          "name": "id",
          "type": "uint256"
        }
      ],
      "name": "DidFinaliseWithdrawal",
      "type": "event"
    },
    {
      "anonymous": false,
      "inputs": [
        {
          "indexed": false,
          "name": "checkpointID",
          "type": "uint256"
        }
      ],
      "name": "DidInvalidate",
      "type": "event"
    },
    {
      "anonymous": false,
      "inputs": [
        {
          "indexed": false,
          "name": "id",
          "type": "uint256"
        },
        {
          "indexed": false,
          "name": "depositID",
          "type": "uint256"
        },
        {
          "indexed": false,
          "name": "unlock",
          "type": "bytes"
        },
        {
          "indexed": false,
          "name": "owner",
          "type": "address"
        },
        {
          "indexed": false,
          "name": "checkpointID",
          "type": "uint256"
        }
      ],
      "name": "DidDepositWithdraw",
      "type": "event"
    },
    {
      "anonymous": false,
      "inputs": [
        {
          "indexed": false,
          "name": "id",
          "type": "uint256"
        }
      ],
      "name": "DidChallengeDepositWithdraw",
      "type": "event"
    },
    {
      "anonymous": false,
      "inputs": [
        {
          "indexed": false,
          "name": "id",
          "type": "uint256"
        }
      ],
      "name": "DidFinaliseDepositWithdraw",
      "type": "event"
    },
    {
      "anonymous": false,
      "inputs": [
        {
          "indexed": true,
          "name": "id",
          "type": "uint256"
        },
        {
          "indexed": true,
          "name": "amount",
          "type": "uint256"
        },
        {
          "indexed": false,
          "name": "lock",
          "type": "address"
        },
        {
          "indexed": true,
          "name": "timestamp",
          "type": "uint256"
        }
      ],
      "name": "DidDeposit",
      "type": "event"
    },
    {
      "anonymous": false,
      "inputs": [
        {
          "indexed": true,
          "name": "previousOwner",
          "type": "address"
        }
      ],
      "name": "OwnershipRenounced",
      "type": "event"
    },
    {
      "anonymous": false,
      "inputs": [
        {
          "indexed": true,
          "name": "previousOwner",
          "type": "address"
        },
        {
          "indexed": true,
          "name": "newOwner",
          "type": "address"
        }
      ],
      "name": "OwnershipTransferred",
      "type": "event"
    },
    {
      "constant": true,
      "inputs": [
        {
          "name": "_lock",
          "type": "address"
        },
        {
          "name": "_amount",
          "type": "uint256"
        }
      ],
      "name": "depositDigest",
      "outputs": [
        {
          "name": "",
          "type": "bytes32"
        }
      ],
      "payable": false,
      "stateMutability": "view",
      "type": "function"
    },
    {
      "constant": true,
      "inputs": [
        {
          "name": "_lock",
          "type": "address"
        },
        {
          "name": "_amount",
          "type": "uint256"
        }
      ],
      "name": "withdrawalDigest",
      "outputs": [
        {
          "name": "",
          "type": "bytes32"
        }
      ],
      "payable": false,
      "stateMutability": "view",
      "type": "function"
    },
    {
      "constant": true,
      "inputs": [
        {
          "name": "_amount",
          "type": "uint256"
        },
        {
          "name": "_owner",
          "type": "address"
        }
      ],
      "name": "accountsDigest",
      "outputs": [
        {
          "name": "",
          "type": "bytes32"
        }
      ],
      "payable": false,
      "stateMutability": "view",
      "type": "function"
    },
    {
      "constant": false,
      "inputs": [
        {
          "name": "_transactionsMerkleRoot",
          "type": "bytes32"
        },
        {
          "name": "_changesSparseMerkleRoot",
          "type": "bytes32"
        },
        {
          "name": "_accountsStateSparseMerkleRoot",
          "type": "bytes32"
        },
        {
          "name": "signature",
          "type": "bytes"
        }
      ],
      "name": "makeCheckpoint",
      "outputs": [],
      "payable": false,
      "stateMutability": "nonpayable",
      "type": "function"
    },
    {
      "constant": false,
      "inputs": [
        {
          "name": "_checkpointID",
          "type": "uint256"
        },
        {
          "name": "_slotID",
          "type": "uint64"
        },
        {
          "name": "_amount",
          "type": "uint256"
        },
        {
          "name": "_lock",
          "type": "address"
        },
        {
          "name": "_proof",
          "type": "bytes"
        },
        {
          "name": "_unlock",
          "type": "bytes"
        }
      ],
      "name": "startWithdrawal",
      "outputs": [],
      "payable": false,
      "stateMutability": "nonpayable",
      "type": "function"
    },
    {
      "constant": false,
      "inputs": [
        {
          "name": "withdrawalID",
          "type": "uint256"
        }
      ],
      "name": "revokeWithdrawal",
      "outputs": [],
      "payable": false,
      "stateMutability": "nonpayable",
      "type": "function"
    },
    {
      "constant": false,
      "inputs": [
        {
          "name": "withdrawalID",
          "type": "uint256"
        }
      ],
      "name": "finaliseWithdrawal",
      "outputs": [],
      "payable": false,
      "stateMutability": "nonpayable",
      "type": "function"
    },
    {
      "constant": false,
      "inputs": [
        {
          "name": "checkpointID",
          "type": "uint256"
        },
        {
          "name": "slotID",
          "type": "uint64"
        }
      ],
      "name": "querySlot",
      "outputs": [],
      "payable": false,
      "stateMutability": "nonpayable",
      "type": "function"
    },
    {
      "constant": false,
      "inputs": [
        {
          "name": "_queryID",
          "type": "uint64"
        },
        {
          "name": "_proof",
          "type": "bytes"
        },
        {
          "name": "_amount",
          "type": "uint256"
        },
        {
          "name": "_lock",
          "type": "bytes"
        }
      ],
      "name": "responseQueryState",
      "outputs": [],
      "payable": false,
      "stateMutability": "nonpayable",
      "type": "function"
    },
    {
      "constant": false,
      "inputs": [
        {
          "name": "_queryID",
          "type": "uint64"
        }
      ],
      "name": "finaliseQueryState",
      "outputs": [],
      "payable": false,
      "stateMutability": "nonpayable",
      "type": "function"
    },
    {
      "constant": false,
      "inputs": [
        {
          "name": "txid",
          "type": "bytes32"
        },
        {
          "name": "checkpointId",
          "type": "uint256"
        }
      ],
      "name": "queryTransaction",
      "outputs": [],
      "payable": false,
      "stateMutability": "nonpayable",
      "type": "function"
    },
    {
      "constant": false,
      "inputs": [
        {
          "name": "queryId",
          "type": "uint256"
        },
        {
          "name": "ids",
          "type": "uint64[]"
        },
        {
          "name": "txResolver",
          "type": "address"
        },
        {
          "name": "unlock",
          "type": "bytes"
        },
        {
          "name": "proof",
          "type": "bytes"
        }
      ],
      "name": "responseQueryTransaction",
      "outputs": [],
      "payable": false,
      "stateMutability": "nonpayable",
      "type": "function"
    },
    {
      "constant": false,
      "inputs": [
        {
          "name": "queryId",
          "type": "uint256"
        }
      ],
      "name": "finaliseQueryTransaction",
      "outputs": [],
      "payable": false,
      "stateMutability": "nonpayable",
      "type": "function"
    },
    {
      "constant": false,
      "inputs": [
        {
          "name": "slotId",
          "type": "uint64"
        },
        {
          "name": "checkpointId",
          "type": "uint256"
        }
      ],
      "name": "queryChange",
      "outputs": [],
      "payable": false,
      "stateMutability": "nonpayable",
      "type": "function"
    },
    {
      "constant": false,
      "inputs": [
        {
          "name": "queryId",
          "type": "uint256"
        },
        {
          "name": "txid",
          "type": "bytes32"
        }
      ],
      "name": "responseQueryChange",
      "outputs": [],
      "payable": false,
      "stateMutability": "nonpayable",
      "type": "function"
    },
    {
      "constant": false,
      "inputs": [
        {
          "name": "queryId",
          "type": "uint256"
        }
      ],
      "name": "finaliseQueryChange",
      "outputs": [],
      "payable": false,
      "stateMutability": "nonpayable",
      "type": "function"
    },
    {
      "constant": false,
      "inputs": [
        {
          "name": "_checkpointId",
          "type": "uint256"
        },
        {
          "name": "_txID",
          "type": "uint256"
        },
        {
          "name": "_txProof",
          "type": "bytes"
        },
        {
          "name": "_prevHash",
          "type": "bytes32"
        },
        {
          "name": "_prevProof",
          "type": "bytes"
        },
        {
          "name": "_curHash",
          "type": "bytes32"
        },
        {
          "name": "_curProof",
          "type": "bytes"
        },
        {
          "name": "_txType",
          "type": "bytes1"
        },
        {
          "name": "_lock",
          "type": "address"
        },
        {
          "name": "_amount",
          "type": "uint256"
        },
        {
          "name": "_signature",
          "type": "bytes"
        }
      ],
      "name": "invalidate",
      "outputs": [],
      "payable": false,
      "stateMutability": "nonpayable",
      "type": "function"
    },
    {
      "constant": false,
      "inputs": [
        {
          "name": "_slotHash",
          "type": "bytes32"
        },
        {
          "name": "_amount",
          "type": "uint256"
        }
      ],
      "name": "startFastWithdrawal",
      "outputs": [],
      "payable": false,
      "stateMutability": "nonpayable",
      "type": "function"
    },
    {
      "constant": false,
      "inputs": [
        {
          "name": "fastWithdrawalID",
          "type": "uint256"
        },
        {
          "name": "transaction",
          "type": "bytes"
        },
        {
          "name": "currentSlot",
          "type": "bytes32"
        },
        {
          "name": "clientSignature",
          "type": "bytes"
        }
      ],
      "name": "finishFastWithdrawal",
      "outputs": [],
      "payable": false,
      "stateMutability": "nonpayable",
      "type": "function"
    }
  ],
  "bytecode": "0x60806040526015805460ff191690553480156200001b57600080fd5b5060405160a08062003eb88339810160409081528151602083015191830151606084015160809094015160008054600160a060020a0319163317815560018080556004559294919283908111620000f957604080517f08c379a000000000000000000000000000000000000000000000000000000000815260206004820152602160248201527f4445504f5349545f5749544844524157414c5f504552494f445f47545f5a455260448201527f4f00000000000000000000000000000000000000000000000000000000000000606482015290519081900360840190fd5b6006556001600781905560038054600160a060020a031916600160a060020a038816179055600d819055600e819055600f55600084116200019b57604080517f08c379a000000000000000000000000000000000000000000000000000000000815260206004820152601b60248201527f536574746c696e6720706572696f64206d757374206265203e20300000000000604482015290519081900360640190fd5b600082116200020b57604080517f08c379a000000000000000000000000000000000000000000000000000000000815260206004820152601d60248201527f5769746864726177616c20706572696f64206d757374206265203e2030000000604482015290519081900360640190fd5b600081116200027b57604080517f08c379a000000000000000000000000000000000000000000000000000000000815260206004820152601e60248201527f537461746520717565727920706572696f64206d757374206265203e20300000604482015290519081900360640190fd5b600993909355600a5550600b5550613c1f80620002996000396000f3006080604052600436106102375763ffffffff60e060020a6000350416630136ca6f811461023c57806309738320146102a15780631865aba6146102d757806318dcbb09146103155780631b4147291461032d5780632a8143ee146103525780632c26ce671461036a5780633e8889061461038e5780634cf019a8146103b05780635488cc80146103c5578063583e3cef146103da5780635ed7ca5b146103f55780636b3676bc1461041e578063715018a61461058157806371ea2fa5146105965780638564beac14610638578063897d32951461064d5780638b414f45146106625780638cfe877a1461067d5780638da5cb5b146106a157806392d356b1146106d2578063970870101461077e5780639ace38c2146107995780639c6ee9af146107b15780639d2cb086146107c9578063a9983300146108a3578063b02c43d0146108bb578063b4104d1014610901578063b6b55f2514610916578063b896f6a31461092e578063b8a2425214610943578063bca7093d14610988578063bdccb8b51461099d578063c22eee1e14610662578063c4411dc314610a5b578063c703c49614610a80578063c822adda14610bb8578063d10baf28146107b1578063d5ec890414610c04578063d7650e4114610c19578063da4c511414610c2e578063e930a48414610c43578063eb69fa9b14610c64578063ef77067814610d49578063f2fde38b14610e05578063f5bce9c014610e26578063f69340f014610e3b578063fc0c546a14610e53578063fcdf165f14610e68575b600080fd5b34801561024857600080fd5b50604080516020601f60643560048181013592830184900484028501840190955281845261029f9480359460248035956044359536956084949301918190840183828082843750949750610ec69650505050505050565b005b3480156102ad57600080fd5b506102c5600160a060020a03600435166024356111e8565b60408051918252519081900360200190f35b3480156102e357600080fd5b506102ef6004356112bd565b604080519485526020850193909352838301919091526060830152519081900360800190f35b34801561032157600080fd5b5061029f6004356112e4565b34801561033957600080fd5b5061029f60043567ffffffffffffffff60243516611644565b34801561035e57600080fd5b506102ef600435611793565b34801561037657600080fd5b506102c5600435600160a060020a03602435166117ba565b34801561039a57600080fd5b5061029f67ffffffffffffffff60043516611824565b3480156103bc57600080fd5b506102c561196a565b3480156103d157600080fd5b506102c5611970565b3480156103e657600080fd5b5061029f600435602435611976565b34801561040157600080fd5b5061040a611a31565b604080519115158252519081900360200190f35b34801561042a57600080fd5b50604080516020600460443581810135601f810184900484028501840190955284845261029f94823594602480359536959460649492019190819084018382808284375050604080516020601f818a01358b0180359182018390048302840183018552818452989b8a359b909a90999401975091955091820193509150819084018382808284375050604080516020601f818a01358b0180359182018390048302840183018552818452989b8a359b909a90999401975091955091820193509150819084018382808284375050604080516020601f60608a01358b0180359182018390048302840183018552818452989b7fff000000000000000000000000000000000000000000000000000000000000008b35169b600160a060020a03848d0135169b958601359a919950975060809094019550919350918201918190840183828082843750949750611a3a9650505050505050565b34801561058d57600080fd5b5061029f611d68565b3480156105a257600080fd5b5060408051602060046024803582810135601f810185900485028601850190965285855261029f95833595369560449491939091019190819084018382808284375050604080516020601f818a01358b0180359182018390048302840183018552818452989b8a359b909a909994019750919550918201935091508190840183828082843750949750611dd49650505050505050565b34801561064457600080fd5b506102c5611dda565b34801561065957600080fd5b506102c5611de0565b34801561066e57600080fd5b5061029f600435602435611de6565b34801561068957600080fd5b506102c5600160a060020a0360043516602435611dea565b3480156106ad57600080fd5b506106b6611e8b565b60408051600160a060020a039092168252519081900360200190f35b3480156106de57600080fd5b5060408051602060046024803582810135601f810185900485028601850190965285855261029f95833567ffffffffffffffff1695369560449491939091019190819084018382808284375050604080516020601f818a01358b0180359182018390048302840183018552818452989b8a359b909a909994019750919550918201935091508190840183828082843750949750611e9a9650505050505050565b34801561078a57600080fd5b506102c5600435602435612033565b3480156107a557600080fd5b506102ef6004356120b3565b3480156107bd57600080fd5b5061029f6004356120da565b3480156107d557600080fd5b5060408051602060046024803582810135601f810185900485028601850190965285855261029f95833595369560449491939091019190819084018382808284375050604080516020601f89358b018035918201839004830284018301909452808352979a99988101979196509182019450925082915084018382808284375050604080516020601f89358b018035918201839004830284018301909452808352979a9998810197919650918201945092508291508401838280828437509497506120dd9650505050505050565b3480156108af57600080fd5b5061029f60043561245c565b3480156108c757600080fd5b506108d3600435612725565b604080519485526020850193909352600160a060020a03909116838301526060830152519081900360800190f35b34801561090d57600080fd5b506102c5612758565b34801561092257600080fd5b5061029f60043561275e565b34801561093a57600080fd5b506102c5612976565b34801561094f57600080fd5b5061095b60043561297c565b60408051958652602086019490945284840192909252606084015215156080830152519081900360a00190f35b34801561099457600080fd5b506102c56129ae565b3480156109a957600080fd5b506109b56004356129b4565b604051808681526020018581526020018060200184600160a060020a0316600160a060020a03168152602001838152602001828103825285818151815260200191508051906020019080838360005b83811015610a1c578181015183820152602001610a04565b50505050905090810190601f168015610a495780820380516001836020036101000a031916815260200191505b50965050505050505060405180910390f35b348015610a6757600080fd5b5061029f67ffffffffffffffff60043516602435611de6565b348015610a8c57600080fd5b50604080516020601f60643560048181013592830184900484028501840190955281845261040a948035946024803595600160a060020a0360443516953695608494930191819084018382808284375050604080516020601f60608a01358b0180359182018390048302840183018552818452989b8a359b838c01359b958601359a91995097506080909401955091935091820191819084018382808284375050604080516020601f89358b018035918201839004830284018301909452808352979a99988101979196509182019450925082915084018382808284375050604080516020601f89358b018035918201839004830284018301909452808352979a999881019791965091820194509250829150840183828082843750949750612a739650505050505050565b348015610bc457600080fd5b50610bd0600435612af7565b60408051958652602086019490945284840192909252600160a060020a031660608401526080830152519081900360a00190f35b348015610c1057600080fd5b506102c5612b2f565b348015610c2557600080fd5b506102c5612b35565b348015610c3a57600080fd5b506102c5612b3b565b348015610c4f57600080fd5b5061040a600160a060020a0360043516612b41565b348015610c7057600080fd5b5060408051602060046024803582810135848102808701860190975280865261029f9684359636966044959194909101929182918501908490808284375050604080516020601f818a01358b0180359182018390048302840183018552818452989b600160a060020a038b35169b909a90999401975091955091820193509150819084018382808284375050604080516020601f89358b018035918201839004830284018301909452808352979a999881019791965091820194509250829150840183828082843750949750612b569650505050505050565b348015610d5557600080fd5b50604080516020600460843581810135601f810184900484028501840190955284845261029f948235946024803567ffffffffffffffff169560443595606435600160a060020a0316953695919460a494909391019190819084018382808284375050604080516020601f89358b018035918201839004830284018301909452808352979a999881019791965091820194509250829150840183828082843750949750612b5d9650505050505050565b348015610e1157600080fd5b5061029f600160a060020a0360043516612ff1565b348015610e3257600080fd5b506102c5613011565b348015610e4757600080fd5b5061029f600435613017565b348015610e5f57600080fd5b506106b6613021565b348015610e7457600080fd5b5060408051602060046024803582810135601f810185900485028601850190965285855261029f9583359536956044949193909101919081908401838280828437509497506130309650505050505050565b6040805160208082018790528183018690526060808301869052835180840390910181526080909201928390528151600093918291908401908083835b60208310610f225780518252601f199092019160209182019101610f03565b6001836020036101000a0380198251168184511680821785525050505050509050019150506040518091039020905073__LibService____________________________63936347028230600160a060020a0316638da5cb5b6040518163ffffffff1660e060020a028152600401602060405180830381600087803b158015610faa57600080fd5b505af1158015610fbe573d6000803e3d6000fd5b505050506040513d6020811015610fd457600080fd5b505160405160e060020a63ffffffff851602815260048101838152600160a060020a0383166024830152606060448301908152885160648401528851899360840190602085019080838360005b83811015611039578181015183820152602001611021565b50505050905090810190601f1680156110665780820380516001836020036101000a031916815260200191505b5094505050505060206040518083038186803b15801561108557600080fd5b505af4158015611099573d6000803e3d6000fd5b505050506040513d60208110156110af57600080fd5b5051151561112d576040805160e560020a62461bcd02815260206004820152602660248201527f6d616b65436865636b706f696e743a205369676e6174757265206973206e6f7460448201527f2076616c69640000000000000000000000000000000000000000000000000000606482015290519081900360840190fd5b6040805160a0810182526001805480835260208084018a81528486018a8152606086018a8152608087018681526000958652600280865295899020975188559251878701559051938601939093559151600385015590516004909301805460ff19169315159390931790925554825190815291517fc49a74449ce5c51d9f2717b33b498eb4f2c0da1805af2e3aeec4998d9c064f949281900390910190a1600180546111de9163ffffffff6133fa16565b6001555050505050565b6000828260405160200180807f640000000000000000000000000000000000000000000000000000000000000081525060010183600160a060020a0316600160a060020a03166c01000000000000000000000000028152601401828152602001925050506040516020818303038152906040526040518082805190602001908083835b6020831061128a5780518252601f19909201916020918201910161126b565b5181516020939093036101000a600019018019909116921691909117905260405192018290039091209695505050505050565b60126020526000908152604090208054600182015460028301546003909301549192909184565b6112ec613adb565b506000818152601060209081526040808320815160a08101835281548082526001830154948201949094526002820154928101929092526003810154600160a060020a03166060830152600401546080820152919081908190819015156113c3576040805160e560020a62461bcd02815260206004820152603660248201527f66696e616c6973655769746864726177616c3a205769746864726177616c207260448201527f65717565737420646f6573206e6f742065786973747300000000000000000000606482015290519081900360840190fd5b60208086015160008181526002909252604090912080549195509350151561145b576040805160e560020a62461bcd02815260206004820152602e60248201527f66696e616c6973655769746864726177616c3a20436865636b706f696e74206460448201527f6f6573206e6f7420657869737473000000000000000000000000000000000000606482015290519081900360840190fd5b600483015460ff1615156001146114e2576040805160e560020a62461bcd02815260206004820152602b60248201527f66696e616c6973655769746864726177616c3a20436865636b706f696e74206960448201527f73206e6f742076616c6964000000000000000000000000000000000000000000606482015290519081900360840190fd5b5050604080840151606085015160035483517fa9059cbb000000000000000000000000000000000000000000000000000000008152600160a060020a03808416600483015260248201859052945193949293929091169163a9059cbb916044808201926020929091908290030181600087803b15801561156157600080fd5b505af1158015611575573d6000803e3d6000fd5b505050506040513d602081101561158b57600080fd5b50511515611609576040805160e560020a62461bcd02815260206004820152603460248201527f66696e616c6973655769746864726177616c3a2043616e206e6f74207472616e60448201527f7366657220746f6b656e7320746f206f776e6572000000000000000000000000606482015290519081900360840190fd5b6040805187815290517f5cd1f25a33a82fbf95a2aef9909b2845d7927417db7e086cefce9765e4b9a5139181900360200190a1505050505050565b60008281526002602052604090205415156116cf576040805160e560020a62461bcd02815260206004820152602560248201527f7175657279536c6f743a20436865636b706f696e7420646f6573206e6f74206560448201527f7869737473000000000000000000000000000000000000000000000000000000606482015290519081900360840190fd5b6040805160808181018352600e8054808452602080850188815267ffffffffffffffff8816868801818152426060808a019182526000968752601186528a872099518a55935160018a01559051600289015551600397880155935480845292879020909501548651928352908201889052818601929092529283015291517f0aa8cee6d0255a0b9eeeacabc5562a50eb0a49136ab502469a6bbbc049c3bbe4929181900390910190a1600e5461178c90600163ffffffff6133fa16565b600e555050565b60116020526000908152604090208054600182015460028301546003909301549192909184565b6040805160208082018590526c01000000000000000000000000600160a060020a0385160282840152825160348184030181526054909201928390528151600093918291908401908083836020831061128a5780518252601f19909201916020918201910161126b565b67ffffffffffffffff811660009081526011602052604081205415156118ba576040805160e560020a62461bcd02815260206004820152603760248201527f66696e616c697365517565727953746174653a2053746174652071756572792060448201527f7265717565737420646f6573206e6f7420657869737473000000000000000000606482015290519081900360840190fd5b5067ffffffffffffffff8116600090815260116020526040902060030154600b5481014211611959576040805160e560020a62461bcd02815260206004820152603d60248201527f66696e616c697365517565727953746174653a2053746174652071756572792060448201527f736574746c696e6720706572696f64207374696c6c2070726f63656564000000606482015290519081900360840190fd5b50506015805460ff19166001179055565b600f5481565b60015481565b6040805160808181018352600f80548084526020808501888152858701888152426060808901918252600095865260128552898620985189559251600189015590516002880155516003968701559254808352918690209094015485519182529381018790528085018690529081019290925291517f643549f087c917dba3c9feb132e24310c23e94b5735b1f59031be57e9f0f44f8929181900390910190a1600f54611a2a90600163ffffffff6133fa16565b600f555050565b60155460ff1681565b6000611a498c8a8a8a8a61340d565b611a778b7fff00000000000000000000000000000000000000000000000000000000000000871686866138c1565b905073__LibService____________________________63a1982a10600260008f8152602001908152602001600020600101548c846040518463ffffffff1660e060020a028152600401808460001916600019168152602001806020018360001916600019168152602001828103825284818151815260200191508051906020019080838360005b83811015611b17578181015183820152602001611aff565b50505050905090810190601f168015611b445780820380516001836020036101000a031916815260200191505b5094505050505060206040518083038186803b158015611b6357600080fd5b505af4158015611b77573d6000803e3d6000fd5b505050506040513d6020811015611b8d57600080fd5b50511580611ca757506040517f9363470200000000000000000000000000000000000000000000000000000000815260048101828152600160a060020a038616602483015260606044830190815284516064840152845173__LibService____________________________9363936347029386938a93899360840190602085019080838360005b83811015611c2d578181015183820152602001611c15565b50505050905090810190601f168015611c5a5780820380516001836020036101000a031916815260200191505b5094505050505060206040518083038186803b158015611c7957600080fd5b505af4158015611c8d573d6000803e3d6000fd5b505050506040513d6020811015611ca357600080fd5b5051155b1515611cfd576040805160e560020a62461bcd02815260206004820152601a60248201527f696e76616c69646174653a2053746174652069732076616c6964000000000000604482015290519081900360640190fd5b60008c815260026020908152604091829020600401805460ff1990811690915560158054909116600117905581518e815291517fc789f24d122b522898692b9bdec17dafb9d0bbf0c88ed74c17cf9001b2ab4d489281900390910190a1505050505050505050505050565b600054600160a060020a03163314611d7f57600080fd5b60008054604051600160a060020a03909116917ff8df31144d9c2f0f6b59d69b8b98abd5459d07f2742c4df920b25aae33c6482091a26000805473ffffffffffffffffffffffffffffffffffffffff19169055565b50505050565b600b5481565b600d5481565b5050565b6000828260405160200180807f770000000000000000000000000000000000000000000000000000000000000081525060010183600160a060020a0316600160a060020a03166c01000000000000000000000000028152601401828152602001925050506040516020818303038152906040526040518082805190602001908083836020831061128a5780518252601f19909201916020918201910161126b565b600054600160a060020a031681565b67ffffffffffffffff8416600090815260116020526040812080549091901515611f34576040805160e560020a62461bcd02815260206004820152603760248201527f726573706f6e7365517565727953746174653a2053746174652071756572792060448201527f7265717565737420646f6573206e6f7420657869737473000000000000000000606482015290519081900360840190fd5b506001810154600090815260026020526040902080541515611fc6576040805160e560020a62461bcd02815260206004820152602e60248201527f726573706f6e7365517565727953746174653a20436865636b706f696e74206460448201527f6f6573206e6f7420657869737473000000000000000000000000000000000000606482015290519081900360840190fd5b67ffffffffffffffff86166000818152601160209081526040808320838155600181018490556002810184905560030192909255815192835290517f12690854466d3822ace922caf68e747b16849e17b370d3665ec33c2f3d5625179281900390910190a1505050505050565b6000828260405160200180807f6400000000000000000000000000000000000000000000000000000000000000815250600101838152602001828152602001925050506040516020818303038152906040526040518082805190602001908083836020831061128a5780518252601f19909201916020918201910161126b565b60136020526000908152604090208054600182015460028301546003909301549192909184565b50565b600084815260086020526040812080549091908190819081901515612172576040805160e560020a62461bcd02815260206004820152602860248201527f4465706f7369745769746864726177616c5265717565737420646f6573206e6f60448201527f7420657869737473000000000000000000000000000000000000000000000000606482015290519081900360840190fd5b8454600081815260056020526040812060038101546001805494985091965094506002926121a59163ffffffff613a4c16565b8152602081019190915260400160002080549091501515612210576040805160e560020a62461bcd02815260206004820152601a60248201527f436865636b706f696e7420646f6573206e6f7420657869737473000000000000604482015290519081900360640190fd5b6006548201421115612292576040805160e560020a62461bcd02815260206004820152602e60248201527f4465706f736974207769746864726177616c20736574746c696e67207065726960448201527f6f64206973206578636565646564000000000000000000000000000000000000606482015290519081900360840190fd5b82546001808501546002808701548982018054604080516020601f6000199985161561010002999099019093169590950496870182900482028501820190528584526123549695600160a060020a039093169392908301828280156123385780601f1061230d57610100808354040283529160200191612338565b820191906000526020600020905b81548152906001019060200180831161231b57829003601f168201915b50505050508560010154866002015487600301548f8f8f612a73565b15156123d0576040805160e560020a62461bcd02815260206004820152602560248201527f4465706f736974207769746864726177206973206e6f7420696e20636865636b60448201527f706f696e74000000000000000000000000000000000000000000000000000000606482015290519081900360840190fd5b600089815260086020526040812081815560018101829055906123f66002830182613b14565b5060038101805473ffffffffffffffffffffffffffffffffffffffff191690556000600490910155604080518a815290517f6184e38f02279f45138fd97d63fb8197892d34dfaa99cbb41747765a7e548d149181900360200190a1505050505050505050565b60008181526008602052604081205481908190819015156124ed576040805160e560020a62461bcd02815260206004820152602960248201527f4465706f736974207769746864726177616c2072657175657374206973206e6f60448201527f742070726573656e740000000000000000000000000000000000000000000000606482015290519081900360840190fd5b5050506000828152600860209081526040808320805480855260059093529220600380820154930154600190910154600654929450600160a060020a0390911691830142116125ac576040805160e560020a62461bcd02815260206004820152603060248201527f4465706f736974207769746864726177616c20736574746c696e67207065726960448201527f6f64207374696c6c2070726f6365656400000000000000000000000000000000606482015290519081900360840190fd5b600354604080517fa9059cbb000000000000000000000000000000000000000000000000000000008152600160a060020a038581166004830152602482018590529151919092169163a9059cbb9160448083019260209291908290030181600087803b15801561261b57600080fd5b505af115801561262f573d6000803e3d6000fd5b505050506040513d602081101561264557600080fd5b5051151561269d576040805160e560020a62461bcd02815260206004820181905260248201527f43616e206e6f74207472616e7366657220746f6b656e7320746f206f776e6572604482015290519081900360640190fd5b600085815260086020526040812081815560018101829055906126c36002830182613b14565b5060038101805473ffffffffffffffffffffffffffffffffffffffff1916905560006004909101556040805186815290517fc03983f20874b9aa2504cafad5152ee63c1c8647c7f7b59fe23696dc9aa367119181900360200190a15050505050565b600560205260009081526040902080546001820154600283015460039093015491929091600160a060020a039091169084565b60045481565b600081116127b6576040805160e560020a62461bcd02815260206004820152601460248201527f43414e5f4e4f545f4445504f5349545f5a45524f000000000000000000000000604482015290519081900360640190fd5b600354604080517f23b872dd000000000000000000000000000000000000000000000000000000008152336004820152306024820152604481018490529051600160a060020a03909216916323b872dd916064808201926020929091908290030181600087803b15801561282957600080fd5b505af115801561283d573d6000803e3d6000fd5b505050506040513d602081101561285357600080fd5b505115156128ab576040805160e560020a62461bcd02815260206004820152601060248201527f43414e5f4e4f545f5452414e5346455200000000000000000000000000000000604482015290519081900360640190fd5b604080516080810182526004805480835260208084018681523385870181815242606088018181526000968752600586529589902097518855925160018801555160028701805473ffffffffffffffffffffffffffffffffffffffff1916600160a060020a0390921691909117905592516003909501949094559154845191825293519293859390927f734e99ad6cabac166fc659c7aaeea97379f7eef91d74d2721ecec50b53600346928290030190a460045461297090600163ffffffff6133fa16565b60045550565b60065481565b600260208190526000918252604090912080546001820154928201546003830154600490930154919392909160ff1685565b600a5481565b60086020908152600091825260409182902080546001808301546002808501805488519481161561010002600019011691909104601f810187900487028401870190975286835292959094919291830182828015612a535780601f10612a2857610100808354040283529160200191612a53565b820191906000526020600020905b815481529060010190602001808311612a3657829003601f168201915b5050505060038301546004909301549192600160a060020a031691905085565b60008a81526005602052604081205481901515612ada576040805160e560020a62461bcd02815260206004820152601760248201527f4465706f73697420646f6573206e6f7420657869737473000000000000000000604482015290519081900360640190fd5b612ae48c8c612033565b5060019c9b505050505050505050505050565b60106020526000908152604090208054600182015460028301546003840154600490940154929391929091600160a060020a03169085565b600c5481565b600e5481565b60095481565b60146020526000908152604090205460ff1681565b5050505050565b6000838560405160200180807f770000000000000000000000000000000000000000000000000000000000000081525060010183600160a060020a0316600160a060020a03166c01000000000000000000000000028152601401828152602001925050506040516020818303038152906040526040518082805190602001908083835b60208310612bff5780518252601f199092019160209182019101612be0565b51815160209384036101000a6000190180199092169116179052604080519290940182900390912060008d81526002909252929020549194505015159150612cb99050576040805160e560020a62461bcd02815260206004820152602b60248201527f73746172745769746864726177616c3a20436865636b706f696e7420646f657360448201527f206e6f7420657869737473000000000000000000000000000000000000000000606482015290519081900360840190fd5b6040517f9363470200000000000000000000000000000000000000000000000000000000815260048101828152600160a060020a038616602483015260606044830190815284516064840152845173__LibService____________________________9363936347029386938a93899360840190602085019080838360005b83811015612d50578181015183820152602001612d38565b50505050905090810190601f168015612d7d5780820380516001836020036101000a031916815260200191505b5094505050505060206040518083038186803b158015612d9c57600080fd5b505af4158015612db0573d6000803e3d6000fd5b505050506040513d6020811015612dc657600080fd5b50511515612e44576040805160e560020a62461bcd02815260206004820152602760248201527f73746172745769746864726177616c3a205369676e6174757265206973206e6f60448201527f742076616c696400000000000000000000000000000000000000000000000000606482015290519081900360840190fd5b60a060405190810160405280600d54815260200188815260200186815260200185600160a060020a031681526020014281525060106000600d54815260200190815260200160002060008201518160000155602082015181600101556040820151816002015560608201518160030160006101000a815481600160a060020a030219169083600160a060020a03160217905550608082015181600401559050507f23e973abebacbfa487f5c3ed8a224463650033bdb323f73965fbfcf6104ac209600d548887878660106000600d548152602001908152602001600020600401546040518087815260200186815260200185815260200184600160a060020a0316600160a060020a0316815260200180602001838152602001828103825284818151815260200191508051906020019080838360005b83811015612f92578181015183820152602001612f7a565b50505050905090810190601f168015612fbf5780820380516001836020036101000a031916815260200191505b5097505050505050505060405180910390a1600d54612fe590600163ffffffff6133fa16565b600d5550505050505050565b600054600160a060020a0316331461300857600080fd5b6120da81613a5e565b60075481565b6000526010602052565b600354600160a060020a031681565b60008281526005602052604081205481901515613097576040805160e560020a62461bcd02815260206004820152601760248201527f4465706f73697420646f6573206e6f7420657869737473000000000000000000604482015290519081900360640190fd5b6000848152600560205260409020805460018201549193506130b891612033565b6040517f9363470200000000000000000000000000000000000000000000000000000000815260048101828152336024830181905260606044840190815287516064850152875194955073__LibService____________________________9463936347029487948a939092909160840190602085019080838360005b8381101561314d578181015183820152602001613135565b50505050905090810190601f16801561317a5780820380516001836020036101000a031916815260200191505b5094505050505060206040518083038186803b15801561319957600080fd5b505af41580156131ad573d6000803e3d6000fd5b505050506040513d60208110156131c357600080fd5b50511515613241576040805160e560020a62461bcd02815260206004820152602760248201527f6465706f73697457697468647261773a205369676e6174757265206973206e6f60448201527f742076616c696400000000000000000000000000000000000000000000000000606482015290519081900360840190fd5b60a060405190810160405280600754815260200185815260200184815260200133600160a060020a0316815260200161328560018054613a4c90919063ffffffff16565b9052600754600090815260086020908152604091829020835181558382015160018201559183015180516132bf9260028501920190613b58565b50606082015160038201805473ffffffffffffffffffffffffffffffffffffffff1916600160a060020a03909216919091179055608090910151600490910155600754600180547fd7ed806428a6651c9c571d5425fa97b3b4a81ba4302c0fd4433f8ccf60572c00929187918791339161333891613a4c565b604051808681526020018581526020018060200184600160a060020a0316600160a060020a03168152602001838152602001828103825285818151815260200191508051906020019080838360005b8381101561339f578181015183820152602001613387565b50505050905090810190601f1680156133cc5780820380516001836020036101000a031916815260200191505b50965050505050505060405180910390a16007546133f190600163ffffffff6133fa16565b60075550505050565b8181018281101561340757fe5b92915050565b6000858152600260205260409020541515613498576040805160e560020a62461bcd02815260206004820152602660248201527f696e76616c69646174653a20436865636b706f696e7420646f6573206e6f742060448201527f6578697374730000000000000000000000000000000000000000000000000000606482015290519081900360840190fd5b600260006134ad87600163ffffffff613a4c16565b8152602081019190915260400160002054151561353a576040805160e560020a62461bcd02815260206004820152602f60248201527f696e76616c69646174653a2050726576696f757320636865636b706f696e742060448201527f646f6573206e6f74206578697374730000000000000000000000000000000000606482015290519081900360840190fd5b60008581526002602090815260408083206003015490517fa1982a10000000000000000000000000000000000000000000000000000000008152600481018281526044820187905260606024830190815286516064840152865173__LibService____________________________9663a1982a109689958b959493608490910192918701918190849084905b838110156135df5781810151838201526020016135c7565b50505050905090810190601f16801561360c5780820380516001836020036101000a031916815260200191505b5094505050505060206040518083038186803b15801561362b57600080fd5b505af415801561363f573d6000803e3d6000fd5b505050506040513d602081101561365557600080fd5b505115156136f9576040805160e560020a62461bcd02815260206004820152605860248201527f696e76616c69646174653a2050726f76696465642063757220736c6f7420646f60448201527f6573206e6f742065786973747320696e206163636f756e74732073746174657360648201527f207370617273652074726565206d65726b6c6520726f6f740000000000000000608482015290519081900360a40190fd5b73__LibService____________________________63a1982a106002600061372889600163ffffffff613a4c16565b81526020019081526020016000206003015485876040518463ffffffff1660e060020a028152600401808460001916600019168152602001806020018360001916600019168152602001828103825284818151815260200191508051906020019080838360005b838110156137a757818101518382015260200161378f565b50505050905090810190601f1680156137d45780820380516001836020036101000a031916815260200191505b5094505050505060206040518083038186803b1580156137f357600080fd5b505af4158015613807573d6000803e3d6000fd5b505050506040513d602081101561381d57600080fd5b50511515612b56576040805160e560020a62461bcd02815260206004820152605960248201527f696e76616c69646174653a2050726f7669646564207072657620736c6f74206460448201527f6f6573206e6f742065786973747320696e206163636f756e747320737461746560648201527f73207370617273652074726565206d65726b6c6520726f6f7400000000000000608482015290519081900360a40190fd5b60007f6400000000000000000000000000000000000000000000000000000000000000841415613987576000858152600560205260409020541515613976576040805160e560020a62461bcd02815260206004820152602f60248201527f696e76616c69646174653a20547820646f6573206e6f7420657869737473206960448201527f6e206465706f7369742071756575650000000000000000000000000000000000606482015290519081900360840190fd5b61398083836111e8565b9050613a44565b7f7700000000000000000000000000000000000000000000000000000000000000841415613a44576000858152601060205260409020541515613a3a576040805160e560020a62461bcd02815260206004820152603260248201527f696e76616c69646174653a20547820646f6573206e6f7420657869737473206960448201527f6e207769746864726177616c2071756575650000000000000000000000000000606482015290519081900360840190fd5b6139808383611dea565b949350505050565b600082821115613a5857fe5b50900390565b600160a060020a0381161515613a7357600080fd5b60008054604051600160a060020a03808516939216917f8be0079c531659141344cd1fd0a4f28419497f9722a3daafe3b4186f6b6457e091a36000805473ffffffffffffffffffffffffffffffffffffffff1916600160a060020a0392909216919091179055565b60a0604051908101604052806000815260200160008152602001600081526020016000600160a060020a03168152602001600081525090565b50805460018160011615610100020316600290046000825580601f10613b3a57506120da565b601f0160209004906000526020600020908101906120da9190613bd6565b828054600181600116156101000203166002900490600052602060002090601f016020900481019282601f10613b9957805160ff1916838001178555613bc6565b82800160010185558215613bc6579182015b82811115613bc6578251825591602001919060010190613bab565b50613bd2929150613bd6565b5090565b613bf091905b80821115613bd25760008155600101613bdc565b905600a165627a7a723058207ec05348e53ec1243a3f37de108224c57c76ec97406cefa1f31c8cfcb9ec28460029",
  "source": "pragma solidity ^0.4.25;\n\nimport \"openzeppelin-solidity/contracts/math/SafeMath.sol\";\nimport \"openzeppelin-solidity/contracts/ECRecovery.sol\";\nimport \"openzeppelin-solidity/contracts/token/ERC20/StandardToken.sol\";\nimport \"openzeppelin-solidity/contracts/ownership/Ownable.sol\";\nimport \"./DepositWithdraw.sol\";\nimport \"./LibBytes.sol\";\nimport \"./LibStructs.sol\";\nimport \"./LibService.sol\";\nimport \"./CheckpointedLib.sol\";\nimport \"./Depositable.sol\";\n\ncontract Plasmoid is Ownable, DepositWithdraw {\n    using SafeMath for uint256;\n    using LibBytes for bytes;\n\n    uint256 public settlingPeriod;\n    uint256 public withdrawalPeriod;\n    uint256 public stateQueryPeriod;\n    uint256 public fastWithdrawalPeriod;\n\n    uint256 public withdrawalQueueIDNow;\n    uint256 public stateQueryQueueIDNow;\n    uint256 public fastWithdrawalIDNow;\n\n    mapping (uint256 => LibStructs.WithdrawalRequest) public withdrawalQueue;\n    mapping (uint256 => LibStructs.StateQueryRequest) public stateQueryQueue;\n    mapping (uint256 => LibStructs.FastWithdrawal) public fastWithdrawals;\n    mapping (uint256 => LibStructs.Transaction) public transactions;\n    mapping (address => bool) public trustedTransactionsList;\n\n    event DidQuerySlot(uint256 id, uint256 checkpointID, uint256 slotID, uint256 timestamp);\n    event DidResponseQueryState(uint64 id);\n    event DidMakeCheckpoint(uint256 id);\n    event DidStartFastWithdrawal(uint256 id, bytes32 slotHash, uint256 amount, uint256 timestamp);\n    event DidFinaliseFastWithdrawal(uint256 id);\n    event DidStartWithdrawal(uint256 id, uint256 checkpointID, uint256 amount, address lock, bytes unlock, uint256 timestamp);\n    event DidFinaliseWithdrawal(uint256 id);\n    event DidInvalidate(uint256 checkpointID);\n\n    bool public halt = false;\n\n    constructor (address _tokenAddress, uint256 _settlingPeriod, uint256 _depositWithdrawalPeriod, uint256 _withdrawalPeriod, uint256 _stateQueryPeriod) public Ownable() DepositWithdraw(_depositWithdrawalPeriod) {\n        token = StandardToken(_tokenAddress);\n        withdrawalQueueIDNow = 1;\n        stateQueryQueueIDNow = 1;\n        fastWithdrawalIDNow = 1;\n\n        require(_settlingPeriod > 0, \"Settling period must be > 0\");\n        require(_withdrawalPeriod > 0, \"Withdrawal period must be > 0\");\n        require(_stateQueryPeriod > 0, \"State query period must be > 0\");\n\n        settlingPeriod = _settlingPeriod;\n        withdrawalPeriod = _withdrawalPeriod;\n        stateQueryPeriod = _stateQueryPeriod;\n    }\n\n    function depositDigest (address _lock, uint256 _amount) public view returns (bytes32) {\n        return keccak256(abi.encodePacked(\"d\", _lock, _amount));\n    }\n\n    function withdrawalDigest (address _lock, uint256 _amount) public view returns (bytes32) {\n        return keccak256(abi.encodePacked(\"w\", _lock, _amount));\n    }\n\n    function accountsDigest (uint256 _amount, address _owner) public view returns (bytes32) {\n        return keccak256(abi.encodePacked(_amount, _owner));\n    }\n\n    function makeCheckpoint (bytes32 _transactionsMerkleRoot, bytes32 _changesSparseMerkleRoot, bytes32 _accountsStateSparseMerkleRoot, bytes signature) public {\n        bytes32 hash = keccak256(abi.encodePacked(_transactionsMerkleRoot, _changesSparseMerkleRoot, _accountsStateSparseMerkleRoot));\n        require(LibService.isValidSignature(hash, this.owner(), signature), \"makeCheckpoint: Signature is not valid\");\n        checkpoints[currentCheckpointId] = CheckpointedLib.Checkpoint({\n            id: currentCheckpointId,\n            transactionsMerkleRoot: _transactionsMerkleRoot,\n            changesSparseMerkleRoot: _changesSparseMerkleRoot,\n            accountsStateSparseMerkleRoot: _accountsStateSparseMerkleRoot,\n            valid: true\n        });\n\n        emit DidMakeCheckpoint(currentCheckpointId);\n\n        currentCheckpointId = currentCheckpointId.add(1);\n    }\n\n    /// @notice Initiate withdrawal from the contract.\n    /// @notice Validate the slot is in the current checkpoint, add the request to a withdrawQueue.\n    /// @param _checkpointID checkpointID\n    /// @param _amount amount\n    /// @param _lock lock\n    /// @param _proof proof\n    /// @param _unlock unlock\n    function startWithdrawal (uint256 _checkpointID, uint64 _slotID, uint256 _amount, address _lock, bytes _proof, bytes _unlock) {\n        bytes32 hash = keccak256(abi.encodePacked(\"w\", _lock, _amount));\n\n        require(checkpoints[_checkpointID].id != 0, \"startWithdrawal: Checkpoint does not exists\");\n        require(LibService.isValidSignature(hash, _lock, _unlock), \"startWithdrawal: Signature is not valid\");\n\n        withdrawalQueue[withdrawalQueueIDNow] = LibStructs.WithdrawalRequest({ id: withdrawalQueueIDNow, checkpointID: _checkpointID, amount: _amount, lock: _lock, timestamp: block.timestamp });\n\n        emit DidStartWithdrawal(withdrawalQueueIDNow, _checkpointID, _amount, _lock, _unlock, withdrawalQueue[withdrawalQueueIDNow].timestamp);\n\n        withdrawalQueueIDNow = withdrawalQueueIDNow.add(1);\n    }\n\n    /// @notice Remove withdrawal attempt if the checkpoint is invalid.\n    /// @param withdrawalID Withdrawal ID\n    function revokeWithdrawal (uint256 withdrawalID) {\n        LibStructs.WithdrawalRequest storage withdrawalRequest = withdrawalQueue[withdrawalID];\n//        require(withdrawalRequest block.timestamp);\n    }\n\n    /// @notice If the withdrawal has not been challenged during a withdrawal window, one could freely exit the contract.\n    /// @param withdrawalID Withdrawal ID\n    function finaliseWithdrawal (uint256 withdrawalID) {\n        LibStructs.WithdrawalRequest memory withdrawalRequest = withdrawalQueue[withdrawalID];\n\n        require(withdrawalRequest.id != 0, \"finaliseWithdrawal: Withdrawal request does not exists\");\n\n        uint256 checkpointID = withdrawalRequest.checkpointID;\n        CheckpointedLib.Checkpoint storage checkpoint = checkpoints[checkpointID];\n\n        require(checkpoint.id != 0, \"finaliseWithdrawal: Checkpoint does not exists\");\n        require(checkpoint.valid == true, \"finaliseWithdrawal: Checkpoint is not valid\");\n\n        uint256 amount = withdrawalRequest.amount;\n        address owner = withdrawalRequest.lock;\n\n        require(token.transfer(owner, amount), \"finaliseWithdrawal: Can not transfer tokens to owner\");\n\n        emit DidFinaliseWithdrawal(withdrawalID);\n    }\n\n    /// @notice Ask the operator for contents of the slot in the checkpoint.\n    function querySlot (uint256 checkpointID, uint64 slotID) {\n        require(checkpoints[checkpointID].id != 0, \"querySlot: Checkpoint does not exists\");\n\n        stateQueryQueue[stateQueryQueueIDNow] = LibStructs.StateQueryRequest({ id: stateQueryQueueIDNow, checkpointID: checkpointID, slotID: slotID, timestamp: block.timestamp });\n\n        emit DidQuerySlot(stateQueryQueueIDNow, checkpointID, slotID, stateQueryQueue[stateQueryQueueIDNow].timestamp);\n\n        stateQueryQueueIDNow = stateQueryQueueIDNow.add(1);\n    }\n\n    /// @notice The operator responds back with a proof and contents of the slot.\n    function responseQueryState (uint64 _queryID, bytes _proof, uint256 _amount, bytes _lock) {\n        LibStructs.StateQueryRequest storage query = stateQueryQueue[_queryID];\n\n        require(query.id != 0, \"responseQueryState: State query request does not exists\");\n\n        CheckpointedLib.Checkpoint storage checkpoint = checkpoints[query.checkpointID];\n\n        require(checkpoint.id != 0, \"responseQueryState: Checkpoint does not exists\");\n\n//        prove(checkpoint, query.slotID, _amount, _lock, _proof);\n\n        delete stateQueryQueue[_queryID];\n\n        emit DidResponseQueryState(_queryID);\n    }\n\n    /// @notice If operator does not answer in timeout then make checkpoint invalid and halt.\n    function finaliseQueryState (uint64 _queryID) {\n        require(stateQueryQueue[_queryID].id != 0, \"finaliseQueryState: State query request does not exists\");\n\n        uint256 stateQueryTimestamp = stateQueryQueue[_queryID].timestamp;\n\n        require(block.timestamp > stateQueryTimestamp + stateQueryPeriod, \"finaliseQueryState: State query settling period still proceed\");\n\n        halt = true;\n    }\n\n    function queryTransaction (bytes32 txid, uint256 checkpointId) {\n//        txQuery += (id, checkpointId, txid, timeout)\n    }\n\n    function responseQueryTransaction(uint256 queryId, uint64[] ids, address txResolver, bytes unlock, bytes proof) {\n\n    }\n\n    function finaliseQueryTransaction(uint256 queryId) {\n\n    }\n\n    function queryChange (uint64 slotId, uint256 checkpointId) {\n\n    }\n\n    function responseQueryChange(uint256 queryId, bytes32 txid) {\n\n    }\n\n    function finaliseQueryChange(uint256 queryId) {\n\n    }\n\n    function invalidateInitialChecks (uint256 _checkpointId, bytes32 _prevHash, bytes _prevProof, bytes32 _curHash, bytes _curProof) private {\n        require(checkpoints[_checkpointId].id != 0, \"invalidate: Checkpoint does not exists\");\n        require(checkpoints[_checkpointId.sub(1)].id != 0, \"invalidate: Previous checkpoint does not exists\");\n\n        require(LibService.isContained(checkpoints[_checkpointId].accountsStateSparseMerkleRoot, _curProof, _curHash), \"invalidate: Provided cur slot does not exists in accounts states sparse tree merkle root\");\n        require(LibService.isContained(checkpoints[_checkpointId.sub(1)].accountsStateSparseMerkleRoot, _prevProof, _prevHash), \"invalidate: Provided prev slot does not exists in accounts states sparse tree merkle root\");\n    }\n\n    function transactionDigest(uint256 _txID, bytes32 _txType, address _lock, uint256 _amount) private view returns (bytes32) {\n        if (_txType == \"d\") {\n            require(deposits[_txID].id != 0, \"invalidate: Tx does not exists in deposit queue\");\n            return depositDigest(_lock, _amount);\n        } else if (_txType == \"w\") {\n            require(withdrawalQueue[_txID].id != 0, \"invalidate: Tx does not exists in withdrawal queue\");\n            return withdrawalDigest(_lock, _amount);\n        }\n    }\n\n    function invalidate (uint256 _checkpointId, uint256 _txID, bytes _txProof, bytes32 _prevHash, bytes _prevProof, bytes32 _curHash, bytes _curProof, bytes1 _txType, address _lock, uint256 _amount, bytes _signature) {\n        invalidateInitialChecks(_checkpointId, _prevHash, _prevProof, _curHash, _curProof);\n\n        bytes32 txDigest = transactionDigest(_txID, _txType, _lock, _amount);\n\n        require(LibService.isContained(checkpoints[_checkpointId].transactionsMerkleRoot, _txProof, txDigest) == false\n                || LibService.isValidSignature(txDigest, _lock, _signature) == false, \"invalidate: State is valid\");\n\n        checkpoints[_checkpointId].valid = false;\n\n        halt = true;\n\n        emit DidInvalidate(_checkpointId);\n    }\n\n    function startFastWithdrawal(bytes32 _slotHash, uint256 _amount) {\n        fastWithdrawals[fastWithdrawalIDNow] = LibStructs.FastWithdrawal({ id: fastWithdrawalIDNow, slotHash: _slotHash, amount: _amount, timestamp: block.timestamp });\n\n        emit DidStartFastWithdrawal(fastWithdrawalIDNow, _slotHash, _amount, fastWithdrawals[fastWithdrawalIDNow].timestamp);\n\n        fastWithdrawalIDNow = fastWithdrawalIDNow.add(1);\n    }\n\n    function finishFastWithdrawal(uint256 fastWithdrawalID, bytes transaction, bytes32 currentSlot, bytes clientSignature) {\n//        FastWithdrawal storage fastWithdrawal = fastWithdrawals[fastWithdrawalID];\n//        uint256 fastWithdrawalTimestamp = fastWithdrawal.timestamp;\n//        require(fastWithdrawal.id != 0, \"Fast Withdrawal is not present\");\n//\n//        newSlot = applyTransaction(currentSlot, transaction);\n//        if (block.timestamp > fastWithdrawalTimestamp + fastWithdrawalPeriod) {\n//            delete fastWithdrawals[fastWithdrawalID];\n//            return;\n//        }\n//        require(newSlot == fastWithdrawal.slotHash, \"Slot hash does not match\");\n//        //        unlockAddress = ecrecover(, fwI)\n////        require(require(slot.canUnlock(unlockAddress)), \"\");\n//        require(token.transfer(owner, fastWithdrawal.amount), \"Can not transfer tokens to client\");\n//\n//        emit DidFinaliseFastWithdrawal(fastWithdrawalID);\n    }\n}\n",
  "sourcePath": "/Users/ukstv/Documents/Pro/Machinomy/plasmoid/contracts/Plasmoid.sol",
  "compiler": {
    "name": "solc",
    "version": "0.4.25+commit.59dbf8f1.Emscripten.clang"
  },
  "schemaVersion": "3.0.0-beta.0",
  "updatedAt": "2018-10-26T11:52:48.859Z"
}