{
  "contractName": "Plasmoid",
  "abi": [
    {
      "constant": true,
      "inputs": [
        {
          "name": "",
          "type": "uint256"
        }
      ],
      "name": "owners",
      "outputs": [
        {
          "name": "",
          "type": "address"
        }
      ],
      "payable": false,
      "stateMutability": "view",
      "type": "function"
    },
    {
      "constant": true,
      "inputs": [],
      "name": "uid",
      "outputs": [
        {
          "name": "",
          "type": "uint256"
        }
      ],
      "payable": false,
      "stateMutability": "view",
      "type": "function"
    },
    {
      "constant": true,
      "inputs": [],
      "name": "token",
      "outputs": [
        {
          "name": "",
          "type": "address"
        }
      ],
      "payable": false,
      "stateMutability": "view",
      "type": "function"
    },
    {
      "inputs": [
        {
          "name": "_tokenAddress",
          "type": "address"
        }
      ],
      "payable": false,
      "stateMutability": "nonpayable",
      "type": "constructor"
    },
    {
      "anonymous": false,
      "inputs": [
        {
          "indexed": true,
          "name": "uid",
          "type": "uint256"
        },
        {
          "indexed": true,
          "name": "owner",
          "type": "address"
        },
        {
          "indexed": false,
          "name": "amount",
          "type": "uint256"
        }
      ],
      "name": "DidDeposit",
      "type": "event"
    },
    {
      "anonymous": false,
      "inputs": [
        {
          "indexed": true,
          "name": "uid",
          "type": "uint256"
        },
        {
          "indexed": true,
          "name": "owner",
          "type": "address"
        },
        {
          "indexed": false,
          "name": "amount",
          "type": "uint256"
        }
      ],
      "name": "DidWithdraw",
      "type": "event"
    },
    {
      "anonymous": false,
      "inputs": [
        {
          "indexed": true,
          "name": "uid",
          "type": "uint256"
        },
        {
          "indexed": true,
          "name": "owner",
          "type": "address"
        },
        {
          "indexed": true,
          "name": "receiver",
          "type": "address"
        }
      ],
      "name": "DidTransfer",
      "type": "event"
    },
    {
      "anonymous": false,
      "inputs": [
        {
          "indexed": false,
          "name": "owner",
          "type": "address"
        }
      ],
      "name": "Foo",
      "type": "event"
    },
    {
      "constant": true,
      "inputs": [
        {
          "name": "_uid",
          "type": "uint256"
        }
      ],
      "name": "balanceOf",
      "outputs": [
        {
          "name": "",
          "type": "uint256"
        }
      ],
      "payable": false,
      "stateMutability": "view",
      "type": "function"
    },
    {
      "constant": false,
      "inputs": [
        {
          "name": "_amount",
          "type": "uint256"
        }
      ],
      "name": "deposit",
      "outputs": [],
      "payable": false,
      "stateMutability": "nonpayable",
      "type": "function"
    },
    {
      "constant": false,
      "inputs": [
        {
          "name": "_uid",
          "type": "uint256"
        },
        {
          "name": "receiver",
          "type": "address"
        }
      ],
      "name": "transfer",
      "outputs": [],
      "payable": false,
      "stateMutability": "nonpayable",
      "type": "function"
    },
    {
      "constant": false,
      "inputs": [
        {
          "name": "_uid",
          "type": "uint256"
        },
        {
          "name": "_receiver",
          "type": "address"
        },
        {
          "name": "_signature",
          "type": "bytes"
        }
      ],
      "name": "transferDelegate",
      "outputs": [],
      "payable": false,
      "stateMutability": "nonpayable",
      "type": "function"
    },
    {
      "constant": true,
      "inputs": [
        {
          "name": "_uid",
          "type": "uint256"
        },
        {
          "name": "_receiver",
          "type": "address"
        }
      ],
      "name": "transferDigest",
      "outputs": [
        {
          "name": "",
          "type": "bytes32"
        }
      ],
      "payable": false,
      "stateMutability": "view",
      "type": "function"
    },
    {
      "constant": false,
      "inputs": [
        {
          "name": "_uid",
          "type": "uint256"
        }
      ],
      "name": "withdraw",
      "outputs": [],
      "payable": false,
      "stateMutability": "nonpayable",
      "type": "function"
    }
  ],
  "bytecode": "0x608060405234801561001057600080fd5b50604051602080610a4a833981016040525160038054600160a060020a03909216600160a060020a031990921691909117905560006002556109f3806100576000396000f3006080604052600436106100985763ffffffff7c0100000000000000000000000000000000000000000000000000000000600035041663025e7c27811461009d5780631f1b4764146100d15780632e1a7d4d146101075780639cc7f70814610121578063b6b55f2514610139578063b7760c8f14610151578063de8c510314610175578063f514ce36146101de578063fc0c546a146101f3575b600080fd5b3480156100a957600080fd5b506100b5600435610208565b60408051600160a060020a039092168252519081900360200190f35b3480156100dd57600080fd5b506100f5600435600160a060020a0360243516610223565b60408051918252519081900360200190f35b34801561011357600080fd5b5061011f6004356102f3565b005b34801561012d57600080fd5b506100f5600435610538565b34801561014557600080fd5b5061011f60043561054a565b34801561015d57600080fd5b5061011f600435600160a060020a03602435166106de565b34801561018157600080fd5b50604080516020600460443581810135601f810184900484028501840190955284845261011f9482359460248035600160a060020a0316953695946064949201919081908401838280828437509497506107b89650505050505050565b3480156101ea57600080fd5b506100f5610820565b3480156101ff57600080fd5b506100b5610826565b600160205260009081526040902054600160a060020a031681565b604080517f74000000000000000000000000000000000000000000000000000000000000006020808301919091526c01000000000000000000000000308102602184015260358301869052600160a060020a038516026055830152825160498184030181526069909201928390528151600093918291908401908083835b602083106102c05780518252601f1990920191602091820191016102a1565b5181516020939093036101000a600019018019909116921691909117905260405192018290039091209695505050505050565b60008181526001602090815260408083205491839052822054600160a060020a0390911691811161036e576040805160e560020a62461bcd02815260206004820152600c60248201527f42616c616e636520697320300000000000000000000000000000000000000000604482015290519081900360640190fd5b600160a060020a03821633146103ce576040805160e560020a62461bcd02815260206004820152601760248201527f4f6e6c79206f776e65722063616e207769746864726177000000000000000000604482015290519081900360640190fd5b600354604080517fa9059cbb000000000000000000000000000000000000000000000000000000008152600160a060020a038581166004830152602482018590529151919092169163a9059cbb9160448083019260209291908290030181600087803b15801561043d57600080fd5b505af1158015610451573d6000803e3d6000fd5b505050506040513d602081101561046757600080fd5b505115156104bf576040805160e560020a62461bcd02815260206004820152601760248201527f43616e206e6f74207472616e7366657220746f6b656e73000000000000000000604482015290519081900360640190fd5b6000838152602081815260408083208390556001825291829020805473ffffffffffffffffffffffffffffffffffffffff1916905560025482518481529251600160a060020a0386169391927fe8f063b84290b3803235ab51b951ae0276860066ecfbe56b91d0f39a6c515525928290030190a3505050565b60009081526020819052604090205490565b600081116105a2576040805160e560020a62461bcd02815260206004820152601160248201527f43616e206e6f74206465706f7369742030000000000000000000000000000000604482015290519081900360640190fd5b600354604080517f23b872dd000000000000000000000000000000000000000000000000000000008152336004820152306024820152604481018490529051600160a060020a03909216916323b872dd916064808201926020929091908290030181600087803b15801561061557600080fd5b505af1158015610629573d6000803e3d6000fd5b505050506040513d602081101561063f57600080fd5b5051151561064c57600080fd5b60025461066090600163ffffffff61083516565b6002818155600091825260208281526040808420859055825484526001825292839020805473ffffffffffffffffffffffffffffffffffffffff191633908117909155915483518581529351929390927f18b132744288679626598e27370ac2f7ebb000bf584bbb6fc9f575163a4a881c929181900390910190a350565b600082815260016020526040902054600160a060020a031633811461074d576040805160e560020a62461bcd02815260206004820152601760248201527f4f6e6c79206f776e65722063616e207472616e73666572000000000000000000604482015290519081900360640190fd5b600083815260016020526040808220805473ffffffffffffffffffffffffffffffffffffffff1916600160a060020a03868116918217909255915191929084169186917f6a40fd1d1bce324b8181b3041c13793a16ae926abad56b333240a41dc8c0fde991a4505050565b6000806107cd6107c88686610223565b610848565b91506107d982846108f2565b60408051600160a060020a038316815290519192507fe773a60b784586770a963a70fa6ba2bdf31c462939b6ba36852ed45f5f722358919081900360200190a15050505050565b60025481565b600354600160a060020a031681565b8181018281101561084257fe5b92915050565b604080517f19457468657265756d205369676e6564204d6573736167653a0a333200000000602080830191909152603c80830185905283518084039091018152605c909201928390528151600093918291908401908083835b602083106108c05780518252601f1990920191602091820191016108a1565b5181516020939093036101000a6000190180199091169216919091179052604051920182900390912095945050505050565b6000806000808451604114151561090c57600093506109be565b50505060208201516040830151606084015160001a601b60ff8216101561093157601b015b8060ff16601b1415801561094957508060ff16601c14155b1561095757600093506109be565b60408051600080825260208083018085528a905260ff8516838501526060830187905260808301869052925160019360a0808501949193601f19840193928390039091019190865af11580156109b1573d6000803e3d6000fd5b5050506020604051035193505b505050929150505600a165627a7a723058202dd23fc33098eaa0012075ec00e16266501504d8e5b0d16375313c39e05703c40029",
  "source": "pragma solidity ^0.4.24;\n\nimport \"openzeppelin-solidity/contracts/math/SafeMath.sol\";\nimport \"openzeppelin-solidity/contracts/ECRecovery.sol\";\nimport \"openzeppelin-solidity/contracts/token/ERC20/StandardToken.sol\";\n\n\ncontract Plasmoid {\n    using SafeMath for uint256;\n\n    mapping (uint256 => uint256) private balances;\n    mapping (uint256 => address) public owners;\n\n    uint256 public uid;\n\n    StandardToken public token;\n\n    event DidDeposit(uint256 indexed uid, address indexed owner, uint256 amount);\n    event DidWithdraw(uint256 indexed uid, address indexed owner, uint256 amount);\n    event DidTransfer(uint256 indexed uid, address indexed owner, address indexed receiver);\n\n    constructor (address _tokenAddress) public {\n        token = StandardToken(_tokenAddress);\n        uid = 0;\n    }\n\n    function balanceOf (uint256 _uid) public view returns (uint256) {\n        return balances[_uid];\n    }\n\n    function deposit (uint256 _amount) public {\n        require(_amount > 0, \"Can not deposit 0\");\n        require(token.transferFrom(msg.sender, address(this), _amount));\n        uid = uid.add(1);\n        balances[uid] = _amount;\n        owners[uid] = msg.sender;\n\n        emit DidDeposit(uid, msg.sender, _amount);\n    }\n\n    function transfer(uint256 _uid, address receiver) public {\n        address owner = owners[_uid];\n        require(owner == msg.sender, \"Only owner can transfer\");\n        owners[_uid] = receiver;\n\n        emit DidTransfer(_uid, owner, receiver);\n    }\n\n    event Foo(address owner);\n    function transferDelegate (uint256 _uid, address _receiver, bytes _signature) public {\n        bytes32 recoveryDigest = ECRecovery.toEthSignedMessageHash(transferDigest(_uid, _receiver));\n        address recovered = ECRecovery.recover(recoveryDigest, _signature);\n        Foo(recovered);\n    }\n\n    function transferDigest (uint256 _uid, address _receiver) public view returns (bytes32) {\n        return keccak256(abi.encodePacked(\"t\", address(this), _uid, _receiver));\n    }\n\n    function withdraw (uint256 _uid) public {\n        address owner = owners[_uid];\n        uint256 amount = balances[_uid];\n\n        require(amount > 0, \"Balance is 0\");\n        require(owner == msg.sender, \"Only owner can withdraw\");\n        require(token.transfer(owner, amount), \"Can not transfer tokens\");\n        delete balances[_uid];\n        delete owners[_uid];\n\n        emit DidWithdraw(uid, owner, amount);\n    }\n}\n",
  "sourcePath": "/Users/ukstv/Documents/Pro/Machinomy/plasmoid/contracts/Plasmoid.sol",
  "compiler": {
    "name": "solc",
    "version": "0.4.24+commit.e67f0147.Emscripten.clang"
  },
  "schemaVersion": "3.0.0-beta.0",
  "updatedAt": "2018-09-02T12:09:53.352Z"
}